{
  "contractName": "Marketplace",
  "abi": [
    {
      "constant": true,
      "inputs": [
        {
          "name": "",
          "type": "address"
        }
      ],
      "name": "userStatus",
      "outputs": [
        {
          "name": "",
          "type": "uint8"
        }
      ],
      "payable": false,
      "stateMutability": "view",
      "type": "function"
    },
    {
      "constant": true,
      "inputs": [
        {
          "name": "",
          "type": "uint256"
        }
      ],
      "name": "itemList",
      "outputs": [
        {
          "name": "place",
          "type": "uint256"
        },
        {
          "name": "sku",
          "type": "uint256"
        },
        {
          "name": "name",
          "type": "string"
        },
        {
          "name": "price",
          "type": "uint256"
        },
        {
          "name": "state",
          "type": "uint8"
        },
        {
          "name": "seller",
          "type": "address"
        },
        {
          "name": "buyer",
          "type": "address"
        }
      ],
      "payable": false,
      "stateMutability": "view",
      "type": "function"
    },
    {
      "constant": true,
      "inputs": [],
      "name": "storeId",
      "outputs": [
        {
          "name": "",
          "type": "uint256"
        }
      ],
      "payable": false,
      "stateMutability": "view",
      "type": "function"
    },
    {
      "constant": true,
      "inputs": [],
      "name": "itemId",
      "outputs": [
        {
          "name": "",
          "type": "uint256"
        }
      ],
      "payable": false,
      "stateMutability": "view",
      "type": "function"
    },
    {
      "constant": true,
      "inputs": [
        {
          "name": "",
          "type": "uint256"
        }
      ],
      "name": "storeList",
      "outputs": [
        {
          "name": "storeowner",
          "type": "address"
        }
      ],
      "payable": false,
      "stateMutability": "view",
      "type": "function"
    },
    {
      "constant": true,
      "inputs": [
        {
          "name": "",
          "type": "address"
        },
        {
          "name": "",
          "type": "uint256"
        }
      ],
      "name": "storeownerList",
      "outputs": [
        {
          "name": "",
          "type": "uint256"
        }
      ],
      "payable": false,
      "stateMutability": "view",
      "type": "function"
    },
    {
      "inputs": [],
      "payable": false,
      "stateMutability": "nonpayable",
      "type": "constructor"
    },
    {
      "anonymous": false,
      "inputs": [
        {
          "indexed": false,
          "name": "newAdmin",
          "type": "address"
        }
      ],
      "name": "AdminAdded",
      "type": "event"
    },
    {
      "anonymous": false,
      "inputs": [
        {
          "indexed": false,
          "name": "storeOwner",
          "type": "address"
        }
      ],
      "name": "StoreownerAdded",
      "type": "event"
    },
    {
      "anonymous": false,
      "inputs": [
        {
          "indexed": false,
          "name": "storeowner",
          "type": "address"
        },
        {
          "indexed": false,
          "name": "storeId",
          "type": "uint256"
        }
      ],
      "name": "StoreOpened",
      "type": "event"
    },
    {
      "anonymous": false,
      "inputs": [
        {
          "indexed": false,
          "name": "storeowner",
          "type": "address"
        },
        {
          "indexed": false,
          "name": "storeId",
          "type": "uint256"
        }
      ],
      "name": "StoreClosed",
      "type": "event"
    },
    {
      "anonymous": false,
      "inputs": [
        {
          "indexed": false,
          "name": "storeId",
          "type": "uint256"
        },
        {
          "indexed": false,
          "name": "itemId",
          "type": "uint256"
        }
      ],
      "name": "ItemListed",
      "type": "event"
    },
    {
      "anonymous": false,
      "inputs": [
        {
          "indexed": false,
          "name": "storeId",
          "type": "uint256"
        },
        {
          "indexed": false,
          "name": "itemId",
          "type": "uint256"
        }
      ],
      "name": "ItemSold",
      "type": "event"
    },
    {
      "anonymous": false,
      "inputs": [
        {
          "indexed": false,
          "name": "storeId",
          "type": "uint256"
        },
        {
          "indexed": false,
          "name": "itemId",
          "type": "uint256"
        }
      ],
      "name": "ItemUnlisted",
      "type": "event"
    },
    {
      "constant": false,
      "inputs": [
        {
          "name": "_address",
          "type": "address"
        }
      ],
      "name": "addAdmin",
      "outputs": [],
      "payable": false,
      "stateMutability": "nonpayable",
      "type": "function"
    },
    {
      "constant": false,
      "inputs": [
        {
          "name": "_address",
          "type": "address"
        }
      ],
      "name": "addStoreowner",
      "outputs": [],
      "payable": false,
      "stateMutability": "nonpayable",
      "type": "function"
    },
    {
      "constant": false,
      "inputs": [],
      "name": "openStore",
      "outputs": [],
      "payable": false,
      "stateMutability": "nonpayable",
      "type": "function"
    },
    {
      "constant": false,
      "inputs": [
        {
          "name": "_storeId",
          "type": "uint256"
        },
        {
          "name": "_name",
          "type": "string"
        },
        {
          "name": "_price",
          "type": "uint256"
        }
      ],
      "name": "listItem",
      "outputs": [],
      "payable": false,
      "stateMutability": "nonpayable",
      "type": "function"
    },
    {
      "constant": false,
      "inputs": [
        {
          "name": "sku",
          "type": "uint256"
        }
      ],
      "name": "buyItem",
      "outputs": [],
      "payable": true,
      "stateMutability": "payable",
      "type": "function"
    },
    {
      "constant": true,
      "inputs": [
        {
          "name": "_sku",
          "type": "uint256"
        }
      ],
      "name": "fetchItem",
      "outputs": [
        {
          "name": "place",
          "type": "uint256"
        },
        {
          "name": "sku",
          "type": "uint256"
        },
        {
          "name": "name",
          "type": "string"
        },
        {
          "name": "price",
          "type": "uint256"
        },
        {
          "name": "state",
          "type": "uint256"
        },
        {
          "name": "seller",
          "type": "address"
        },
        {
          "name": "buyer",
          "type": "address"
        }
      ],
      "payable": false,
      "stateMutability": "view",
      "type": "function"
    },
    {
      "constant": true,
      "inputs": [
        {
          "name": "_address",
          "type": "address"
        }
      ],
      "name": "fetchStoresByAddress",
      "outputs": [
        {
          "name": "stores",
          "type": "uint256[]"
        }
      ],
      "payable": false,
      "stateMutability": "view",
      "type": "function"
    },
    {
      "constant": true,
      "inputs": [
        {
          "name": "_storeId",
          "type": "uint256"
        }
      ],
      "name": "fetchStoreowner",
      "outputs": [
        {
          "name": "_storeowner",
          "type": "address"
        }
      ],
      "payable": false,
      "stateMutability": "view",
      "type": "function"
    }
  ],
  "bytecode": "0x608060405234801561001057600080fd5b50336000806101000a81548173ffffffffffffffffffffffffffffffffffffffff021916908373ffffffffffffffffffffffffffffffffffffffff160217905550600060018190555060006002819055506001600360003373ffffffffffffffffffffffffffffffffffffffff1673ffffffffffffffffffffffffffffffffffffffff16815260200190815260200160002060006101000a81548160ff021916908360028111156100bd57fe5b021790555061182d806100d16000396000f3006080604052600436106100d0576000357c0100000000000000000000000000000000000000000000000000000000900463ffffffff168063069a3d4c146100d5578063200fffca14610152578063225d29a1146101ea5780633d4d36001461024f5780634e427852146103855780636ce5c206146103b057806370480275146103f35780637e1dcaf714610436578063ad4b9cfb1461044d578063b03b4bcf14610575578063ca6158cb146105e2578063d0f2e2b71461060d578063d246992e1461067a578063e7fb74c7146106db575b600080fd5b3480156100e157600080fd5b5061015060048036038101908080359060200190929190803590602001908201803590602001908080601f0160208091040260200160405190810160405280939291908181526020018383808284378201915050505050509192919290803590602001909291905050506106fb565b005b34801561015e57600080fd5b50610193600480360381019080803573ffffffffffffffffffffffffffffffffffffffff169060200190929190505050610a18565b6040518080602001828103825283818151815260200191508051906020019060200280838360005b838110156101d65780820151818401526020810190506101bb565b505050509050019250505060405180910390f35b3480156101f657600080fd5b5061022b600480360381019080803573ffffffffffffffffffffffffffffffffffffffff169060200190929190505050610aaf565b6040518082600281111561023b57fe5b60ff16815260200191505060405180910390f35b34801561025b57600080fd5b5061027a60048036038101908080359060200190929190505050610acf565b60405180888152602001878152602001806020018681526020018560018111156102a057fe5b60ff1681526020018473ffffffffffffffffffffffffffffffffffffffff1673ffffffffffffffffffffffffffffffffffffffff1681526020018373ffffffffffffffffffffffffffffffffffffffff1673ffffffffffffffffffffffffffffffffffffffff168152602001828103825287818151815260200191508051906020019080838360005b83811015610344578082015181840152602081019050610329565b50505050905090810190601f1680156103715780820380516001836020036101000a031916815260200191505b509850505050505050505060405180910390f35b34801561039157600080fd5b5061039a610bf6565b6040518082815260200191505060405180910390f35b3480156103bc57600080fd5b506103f1600480360381019080803573ffffffffffffffffffffffffffffffffffffffff169060200190929190505050610bfc565b005b3480156103ff57600080fd5b50610434600480360381019080803573ffffffffffffffffffffffffffffffffffffffff169060200190929190505050610da6565b005b34801561044257600080fd5b5061044b610ede565b005b34801561045957600080fd5b5061047860048036038101908080359060200190929190505050611163565b60405180888152602001878152602001806020018681526020018581526020018473ffffffffffffffffffffffffffffffffffffffff1673ffffffffffffffffffffffffffffffffffffffff1681526020018373ffffffffffffffffffffffffffffffffffffffff1673ffffffffffffffffffffffffffffffffffffffff168152602001828103825287818151815260200191508051906020019080838360005b83811015610534578082015181840152602081019050610519565b50505050905090810190601f1680156105615780820380516001836020036101000a031916815260200191505b509850505050505050505060405180910390f35b34801561058157600080fd5b506105a06004803603810190808035906020019092919050505061132d565b604051808273ffffffffffffffffffffffffffffffffffffffff1673ffffffffffffffffffffffffffffffffffffffff16815260200191505060405180910390f35b3480156105ee57600080fd5b506105f761136d565b6040518082815260200191505060405180910390f35b34801561061957600080fd5b5061063860048036038101908080359060200190929190505050611373565b604051808273ffffffffffffffffffffffffffffffffffffffff1673ffffffffffffffffffffffffffffffffffffffff16815260200191505060405180910390f35b34801561068657600080fd5b506106c5600480360381019080803573ffffffffffffffffffffffffffffffffffffffff169060200190929190803590602001909291905050506113b1565b6040518082815260200191505060405180910390f35b6106f9600480360381019080803590602001909291905050506113e1565b005b6001600281111561070857fe5b600360003373ffffffffffffffffffffffffffffffffffffffff1673ffffffffffffffffffffffffffffffffffffffff16815260200190815260200160002060009054906101000a900460ff16600281111561076057fe5b14806107cd575060028081111561077357fe5b600360003373ffffffffffffffffffffffffffffffffffffffff1673ffffffffffffffffffffffffffffffffffffffff16815260200190815260200160002060009054906101000a900460ff1660028111156107cb57fe5b145b15156107d857600080fd5b3373ffffffffffffffffffffffffffffffffffffffff166005600085815260200190815260200160002060000160009054906101000a900473ffffffffffffffffffffffffffffffffffffffff1673ffffffffffffffffffffffffffffffffffffffff1614151561084857600080fd5b7f5cedb4b4e9d21f2b6ae92d858fd47c1f6ef4af540c48aea4cccc861bdfbffb6983600254604051808381526020018281526020019250505060405180910390a160e0604051908101604052808481526020016002548152602001838152602001828152602001600060018111156108bc57fe5b81526020013373ffffffffffffffffffffffffffffffffffffffff168152602001600073ffffffffffffffffffffffffffffffffffffffff168152506006600060025481526020019081526020016000206000820151816000015560208201518160010155604082015181600201908051906020019061093d9291906116df565b506060820151816003015560808201518160040160006101000a81548160ff0219169083600181111561096c57fe5b021790555060a08201518160040160016101000a81548173ffffffffffffffffffffffffffffffffffffffff021916908373ffffffffffffffffffffffffffffffffffffffff16021790555060c08201518160050160006101000a81548173ffffffffffffffffffffffffffffffffffffffff021916908373ffffffffffffffffffffffffffffffffffffffff1602179055509050506001600260008282540192505081905550505050565b6060600460008373ffffffffffffffffffffffffffffffffffffffff1673ffffffffffffffffffffffffffffffffffffffff168152602001908152602001600020805480602002602001604051908101604052809291908181526020018280548015610aa357602002820191906000526020600020905b815481526020019060010190808311610a8f575b50505050509050919050565b60036020528060005260406000206000915054906101000a900460ff1681565b6006602052806000526040600020600091509050806000015490806001015490806002018054600181600116156101000203166002900480601f016020809104026020016040519081016040528092919081815260200182805460018160011615610100020316600290048015610b875780601f10610b5c57610100808354040283529160200191610b87565b820191906000526020600020905b815481529060010190602001808311610b6a57829003601f168201915b5050505050908060030154908060040160009054906101000a900460ff16908060040160019054906101000a900473ffffffffffffffffffffffffffffffffffffffff16908060050160009054906101000a900473ffffffffffffffffffffffffffffffffffffffff16905087565b60015481565b60016002811115610c0957fe5b600360003373ffffffffffffffffffffffffffffffffffffffff1673ffffffffffffffffffffffffffffffffffffffff16815260200190815260200160002060009054906101000a900460ff166002811115610c6157fe5b141515610c6d57600080fd5b60016002811115610c7a57fe5b600360008373ffffffffffffffffffffffffffffffffffffffff1673ffffffffffffffffffffffffffffffffffffffff16815260200190815260200160002060009054906101000a900460ff166002811115610cd257fe5b14151515610cdf57600080fd5b6002600360008373ffffffffffffffffffffffffffffffffffffffff1673ffffffffffffffffffffffffffffffffffffffff16815260200190815260200160002060006101000a81548160ff02191690836002811115610d3b57fe5b02179055507f252b63b0cbcbe73545bdba2cb1d1fa100be757de4426c7e51638de9980bc5bb081604051808273ffffffffffffffffffffffffffffffffffffffff1673ffffffffffffffffffffffffffffffffffffffff16815260200191505060405180910390a150565b60016002811115610db357fe5b600360003373ffffffffffffffffffffffffffffffffffffffff1673ffffffffffffffffffffffffffffffffffffffff16815260200190815260200160002060009054906101000a900460ff166002811115610e0b57fe5b141515610e1757600080fd5b6001600360008373ffffffffffffffffffffffffffffffffffffffff1673ffffffffffffffffffffffffffffffffffffffff16815260200190815260200160002060006101000a81548160ff02191690836002811115610e7357fe5b02179055507f44d6d25963f097ad14f29f06854a01f575648a1ef82f30e562ccd3889717e33981604051808273ffffffffffffffffffffffffffffffffffffffff1673ffffffffffffffffffffffffffffffffffffffff16815260200191505060405180910390a150565b610ee661175f565b60016002811115610ef357fe5b600360003373ffffffffffffffffffffffffffffffffffffffff1673ffffffffffffffffffffffffffffffffffffffff16815260200190815260200160002060009054906101000a900460ff166002811115610f4b57fe5b1480610fb85750600280811115610f5e57fe5b600360003373ffffffffffffffffffffffffffffffffffffffff1673ffffffffffffffffffffffffffffffffffffffff16815260200190815260200160002060009054906101000a900460ff166002811115610fb657fe5b145b1515610fc357600080fd5b33816000019073ffffffffffffffffffffffffffffffffffffffff16908173ffffffffffffffffffffffffffffffffffffffff16815250508060056000600154815260200190815260200160002060008201518160000160006101000a81548173ffffffffffffffffffffffffffffffffffffffff021916908373ffffffffffffffffffffffffffffffffffffffff160217905550602082015181600101908051906020019061107492919061178f565b50905050600460003373ffffffffffffffffffffffffffffffffffffffff1673ffffffffffffffffffffffffffffffffffffffff16815260200190815260200160002060015490806001815401808255809150509060018203906000526020600020016000909192909190915055507f73ae25dae4902cdc33c050e005f61cfb23cbcf4abe974e1f59614385d04deae333600154604051808373ffffffffffffffffffffffffffffffffffffffff1673ffffffffffffffffffffffffffffffffffffffff1681526020018281526020019250505060405180910390a16001806000828254019250508190555050565b60008060606000806000806006600089815260200190815260200160002060000154965060066000898152602001908152602001600020600101549550600660008981526020019081526020016000206002018054600181600116156101000203166002900480601f01602080910402602001604051908101604052809291908181526020018280546001816001161561010002031660029004801561124a5780601f1061121f5761010080835404028352916020019161124a565b820191906000526020600020905b81548152906001019060200180831161122d57829003601f168201915b50505050509450600660008981526020019081526020016000206003015493506006600089815260200190815260200160002060040160009054906101000a900460ff16600181111561129957fe5b92506006600089815260200190815260200160002060040160019054906101000a900473ffffffffffffffffffffffffffffffffffffffff1691506006600089815260200190815260200160002060050160009054906101000a900473ffffffffffffffffffffffffffffffffffffffff169050868686868686869650965096509650965096509650919395979092949650565b60006005600083815260200190815260200160002060000160009054906101000a900473ffffffffffffffffffffffffffffffffffffffff169050919050565b60025481565b60056020528060005260406000206000915090508060000160009054906101000a900473ffffffffffffffffffffffffffffffffffffffff16905081565b6004602052816000526040600020818154811015156113cc57fe5b90600052602060002001600091509150505481565b80600060018111156113ef57fe5b6006600083815260200190815260200160002060040160009054906101000a900460ff16600181111561141e57fe5b14151561142a57600080fd5b813373ffffffffffffffffffffffffffffffffffffffff166006600083815260200190815260200160002060040160019054906101000a900473ffffffffffffffffffffffffffffffffffffffff1673ffffffffffffffffffffffffffffffffffffffff161415151561149c57600080fd5b60066000848152602001908152602001600020600301548034101515156114c257600080fd5b83600080336006600089815260200190815260200160002060050160006101000a81548173ffffffffffffffffffffffffffffffffffffffff021916908373ffffffffffffffffffffffffffffffffffffffff1602179055506006600088815260200190815260200160002060040160019054906101000a900473ffffffffffffffffffffffffffffffffffffffff1673ffffffffffffffffffffffffffffffffffffffff166108fc600660008a8152602001908152602001600020600301549081150290604051600060405180830381858888f193505050501580156115ad573d6000803e3d6000fd5b5060016006600089815260200190815260200160002060040160006101000a81548160ff021916908360018111156115e157fe5b02179055507f49934bdc44c552b328ef963b26b06602ad0b22bb4d8d1a9f19cdde4e3a2539f6600660008981526020019081526020016000206000015488604051808381526020018281526020019250505060405180910390a16006600084815260200190815260200160002060030154915081340390506006600084815260200190815260200160002060050160009054906101000a900473ffffffffffffffffffffffffffffffffffffffff1673ffffffffffffffffffffffffffffffffffffffff166108fc829081150290604051600060405180830381858888f193505050501580156116d5573d6000803e3d6000fd5b5050505050505050565b828054600181600116156101000203166002900490600052602060002090601f016020900481019282601f1061172057805160ff191683800117855561174e565b8280016001018555821561174e579182015b8281111561174d578251825591602001919060010190611732565b5b50905061175b91906117dc565b5090565b6040805190810160405280600073ffffffffffffffffffffffffffffffffffffffff168152602001606081525090565b8280548282559060005260206000209081019282156117cb579160200282015b828111156117ca5782518255916020019190600101906117af565b5b5090506117d891906117dc565b5090565b6117fe91905b808211156117fa5760008160009055506001016117e2565b5090565b905600a165627a7a723058209c2ce80f639e81c825a58e498dddae0ed459b8dd81a61c8340347290ab5afec00029",
  "source": "pragma solidity ^0.4.23;\n\ncontract Marketplace {\n\n  // set owner\n  address owner;\n\n  /*\n    storeId: total number of stores opened\n    itemId: total number of items listed\n  */\n  uint public storeId;\n  uint public itemId;\n\n  /*\n    userStatus: privileges granted to addresses\n    storeOwnerList: stores owned by each address\n    storeList: storeId mapped to Store\n    itemList: itemId mapped to Item\n\n  */\n  mapping (address => Status) public userStatus;\n  mapping (address => uint[]) public storeownerList;\n  mapping (uint => Store) public storeList;\n  mapping (uint => Item) public itemList;\n\n  /*\n    State: status of item listed for ForSale\n    Status: privileges granted to a user\n  */\n\n  enum State {ForSale, Sold}\n  enum Status {Shopper, Admin, Storeowner}\n\n  struct Store {\n    address storeowner;\n    uint[] items;\n  }\n\n  struct Item {\n    uint place;\n    uint sku;\n    string name;\n    uint price;\n    State state;\n    address seller;\n    address buyer;\n  }\n\n  event AdminAdded(address newAdmin);\n  event StoreownerAdded(address storeOwner);\n\n  event StoreOpened(address storeowner, uint storeId);\n  event StoreClosed(address storeowner, uint storeId);\n\n  event ItemListed(uint storeId, uint itemId);\n  event ItemSold(uint storeId, uint itemId);\n  event ItemUnlisted(uint storeId, uint itemId);\n\n  modifier verifyOwner { require(msg.sender == owner); _;}\n  modifier verifyStoreowner { require(userStatus[msg.sender] == Status.Storeowner); _;}\n  modifier verifyAdmin { require(userStatus[msg.sender] == Status.Admin); _;}\n  modifier verifyAdminOrStoreowner { require(userStatus[msg.sender] == Status.Admin || userStatus[msg.sender] == Status.Storeowner); _;}\n  modifier verifyBuyerIsNotSeller (uint _sku) { require(itemList[_sku].seller != msg.sender); _;}\n\n  modifier forSale (uint _sku) {require(itemList[_sku].state == State.ForSale); _;}\n\n  modifier paidEnough(uint _price) {require(msg.value >= _price); _;}\n  modifier checkValue(uint _sku) {\n    _;\n    uint _price = itemList[_sku].price;\n    uint amountToRefund = msg.value - _price;\n    itemList[_sku].buyer.transfer(amountToRefund);\n  }\n\n  constructor() public {\n    owner = msg.sender;\n    storeId = 0;\n    itemId = 0;\n\n    // initialise contract creator as admin\n    userStatus[msg.sender] = Status.Admin;\n  }\n\n  /*\n    @dev: sets an address as Admin\n    @param addr Address to be set as Admin\n  */\n  function addAdmin(address _address) public verifyAdmin {\n    userStatus[_address] = Status.Admin;\n    emit AdminAdded(_address);\n  }\n\n  /*\n    @dev: sets an address as storeOwner\n    @param addr Address to be set as Storeowner\n  */\n  function addStoreowner(address _address) public verifyAdmin {\n    // ensure user is not already an AdminAdded\n    require(userStatus[_address] != Status.Admin);\n\n    userStatus[_address] = Status.Storeowner;\n    emit StoreownerAdded(_address);\n  }\n\n  function openStore() public verifyAdminOrStoreowner {\n\n    Store memory newStore;\n    newStore.storeowner = msg.sender;\n    storeList[storeId] = newStore;\n    storeownerList[msg.sender].push(storeId);\n\n    emit StoreOpened(msg.sender, storeId);\n\n    storeId += 1;\n\n  }\n\n  function listItem(uint _storeId, string _name, uint _price)\n    public\n    verifyAdminOrStoreowner\n  {\n    require(storeList[_storeId].storeowner == msg.sender);\n    emit ItemListed(_storeId, itemId);\n    itemList[itemId] = Item({place: _storeId, sku: itemId, name: _name,  price: _price, state: State.ForSale,\n      seller: msg.sender, buyer: 0});\n    itemId += 1;\n  }\n\n  function buyItem(uint sku)\n    public\n    payable\n    forSale(sku)\n    verifyBuyerIsNotSeller(sku)\n    paidEnough(itemList[sku].price)\n    checkValue(sku)\n  {\n    itemList[sku].buyer = msg.sender;\n    itemList[sku].seller.transfer(itemList[sku].price);\n    itemList[sku].state = State.Sold;\n    emit ItemSold(itemList[sku].place, sku);\n  }\n\n  function fetchItem(uint _sku)\n    public\n    view\n    returns (uint place, uint sku, string name, uint price, uint state, address seller, address buyer)\n  {\n    place = itemList[_sku].place;\n    sku = itemList[_sku].sku;\n    name = itemList[_sku].name;\n    price = itemList[_sku].price;\n    state = uint(itemList[_sku].state);\n    seller = itemList[_sku].seller;\n    buyer = itemList[_sku].buyer;\n    return (place, sku, name, price, state, seller, buyer);\n  }\n\n  function fetchStoresByAddress(address _address)\n    public\n    view\n    returns (uint[] stores)\n  {\n    stores = storeownerList[_address];\n  }\n\n  function fetchStoreowner(uint _storeId)\n    public\n    view\n    returns (address _storeowner)\n  {\n    _storeowner = storeList[_storeId].storeowner;\n  }\n\n\n  /*\n  function closeStore() private verifyStoreowner {\n\n  }\n\n\n  */\n\n\n}\n",
  "sourcePath": "/home/tserg/marketplace/contracts/Marketplace.sol",
  "compiler": {
    "name": "solc",
    "version": "0.4.24+commit.e67f0147.Emscripten.clang"
  },
  "schemaVersion": "2.0.1",
  "updatedAt": "2018-07-21T05:06:06.403Z"
}