{
  "contractName": "Marketplace",
  "abi": [
    {
      "constant": true,
      "inputs": [
        {
          "name": "",
          "type": "address"
        }
      ],
      "name": "userStatus",
      "outputs": [
        {
          "name": "",
          "type": "uint8"
        }
      ],
      "payable": false,
      "stateMutability": "view",
      "type": "function"
    },
    {
      "constant": true,
      "inputs": [
        {
          "name": "",
          "type": "uint256"
        }
      ],
      "name": "itemList",
      "outputs": [
        {
          "name": "place",
          "type": "uint256"
        },
        {
          "name": "sku",
          "type": "uint256"
        },
        {
          "name": "name",
          "type": "string"
        },
        {
          "name": "price",
          "type": "uint256"
        },
        {
          "name": "state",
          "type": "uint8"
        },
        {
          "name": "seller",
          "type": "address"
        },
        {
          "name": "buyer",
          "type": "address"
        }
      ],
      "payable": false,
      "stateMutability": "view",
      "type": "function"
    },
    {
      "constant": true,
      "inputs": [],
      "name": "storeId",
      "outputs": [
        {
          "name": "",
          "type": "uint256"
        }
      ],
      "payable": false,
      "stateMutability": "view",
      "type": "function"
    },
    {
      "constant": true,
      "inputs": [],
      "name": "stopped",
      "outputs": [
        {
          "name": "",
          "type": "bool"
        }
      ],
      "payable": false,
      "stateMutability": "view",
      "type": "function"
    },
    {
      "constant": true,
      "inputs": [],
      "name": "owner",
      "outputs": [
        {
          "name": "",
          "type": "address"
        }
      ],
      "payable": false,
      "stateMutability": "view",
      "type": "function"
    },
    {
      "constant": true,
      "inputs": [],
      "name": "itemId",
      "outputs": [
        {
          "name": "",
          "type": "uint256"
        }
      ],
      "payable": false,
      "stateMutability": "view",
      "type": "function"
    },
    {
      "constant": true,
      "inputs": [
        {
          "name": "",
          "type": "uint256"
        }
      ],
      "name": "storeList",
      "outputs": [
        {
          "name": "storeowner",
          "type": "address"
        }
      ],
      "payable": false,
      "stateMutability": "view",
      "type": "function"
    },
    {
      "constant": true,
      "inputs": [
        {
          "name": "",
          "type": "address"
        },
        {
          "name": "",
          "type": "uint256"
        }
      ],
      "name": "storeownerList",
      "outputs": [
        {
          "name": "",
          "type": "uint256"
        }
      ],
      "payable": false,
      "stateMutability": "view",
      "type": "function"
    },
    {
      "inputs": [],
      "payable": false,
      "stateMutability": "nonpayable",
      "type": "constructor"
    },
    {
      "anonymous": false,
      "inputs": [
        {
          "indexed": false,
          "name": "newAdmin",
          "type": "address"
        }
      ],
      "name": "AdminAdded",
      "type": "event"
    },
    {
      "anonymous": false,
      "inputs": [
        {
          "indexed": false,
          "name": "storeOwner",
          "type": "address"
        }
      ],
      "name": "StoreownerAdded",
      "type": "event"
    },
    {
      "anonymous": false,
      "inputs": [
        {
          "indexed": false,
          "name": "storeowner",
          "type": "address"
        },
        {
          "indexed": false,
          "name": "storeId",
          "type": "uint256"
        }
      ],
      "name": "StoreOpened",
      "type": "event"
    },
    {
      "anonymous": false,
      "inputs": [
        {
          "indexed": false,
          "name": "storeowner",
          "type": "address"
        },
        {
          "indexed": false,
          "name": "storeId",
          "type": "uint256"
        }
      ],
      "name": "StoreClosed",
      "type": "event"
    },
    {
      "anonymous": false,
      "inputs": [
        {
          "indexed": false,
          "name": "storeId",
          "type": "uint256"
        },
        {
          "indexed": false,
          "name": "itemId",
          "type": "uint256"
        }
      ],
      "name": "ItemListed",
      "type": "event"
    },
    {
      "anonymous": false,
      "inputs": [
        {
          "indexed": false,
          "name": "storeId",
          "type": "uint256"
        },
        {
          "indexed": false,
          "name": "itemId",
          "type": "uint256"
        }
      ],
      "name": "ItemSold",
      "type": "event"
    },
    {
      "anonymous": false,
      "inputs": [
        {
          "indexed": false,
          "name": "storeId",
          "type": "uint256"
        },
        {
          "indexed": false,
          "name": "itemId",
          "type": "uint256"
        }
      ],
      "name": "ItemUnlisted",
      "type": "event"
    },
    {
      "constant": false,
      "inputs": [
        {
          "name": "_address",
          "type": "address"
        }
      ],
      "name": "addAdmin",
      "outputs": [],
      "payable": false,
      "stateMutability": "nonpayable",
      "type": "function"
    },
    {
      "constant": false,
      "inputs": [
        {
          "name": "_address",
          "type": "address"
        }
      ],
      "name": "addStoreowner",
      "outputs": [],
      "payable": false,
      "stateMutability": "nonpayable",
      "type": "function"
    },
    {
      "constant": false,
      "inputs": [],
      "name": "openStore",
      "outputs": [],
      "payable": false,
      "stateMutability": "nonpayable",
      "type": "function"
    },
    {
      "constant": false,
      "inputs": [
        {
          "name": "_storeId",
          "type": "uint256"
        },
        {
          "name": "_name",
          "type": "string"
        },
        {
          "name": "_price",
          "type": "uint256"
        }
      ],
      "name": "listItem",
      "outputs": [],
      "payable": false,
      "stateMutability": "nonpayable",
      "type": "function"
    },
    {
      "constant": false,
      "inputs": [
        {
          "name": "sku",
          "type": "uint256"
        }
      ],
      "name": "buyItem",
      "outputs": [],
      "payable": true,
      "stateMutability": "payable",
      "type": "function"
    },
    {
      "constant": true,
      "inputs": [
        {
          "name": "_sku",
          "type": "uint256"
        }
      ],
      "name": "fetchItem",
      "outputs": [
        {
          "name": "place",
          "type": "uint256"
        },
        {
          "name": "sku",
          "type": "uint256"
        },
        {
          "name": "name",
          "type": "string"
        },
        {
          "name": "price",
          "type": "uint256"
        },
        {
          "name": "state",
          "type": "uint256"
        },
        {
          "name": "seller",
          "type": "address"
        },
        {
          "name": "buyer",
          "type": "address"
        }
      ],
      "payable": false,
      "stateMutability": "view",
      "type": "function"
    },
    {
      "constant": true,
      "inputs": [
        {
          "name": "_address",
          "type": "address"
        }
      ],
      "name": "fetchStoresByAddress",
      "outputs": [
        {
          "name": "stores",
          "type": "uint256[]"
        }
      ],
      "payable": false,
      "stateMutability": "view",
      "type": "function"
    },
    {
      "constant": true,
      "inputs": [
        {
          "name": "_storeId",
          "type": "uint256"
        }
      ],
      "name": "fetchStoreowner",
      "outputs": [
        {
          "name": "_storeowner",
          "type": "address"
        }
      ],
      "payable": false,
      "stateMutability": "view",
      "type": "function"
    },
    {
      "constant": false,
      "inputs": [],
      "name": "kill",
      "outputs": [],
      "payable": false,
      "stateMutability": "nonpayable",
      "type": "function"
    },
    {
      "constant": false,
      "inputs": [],
      "name": "toggleContractActive",
      "outputs": [],
      "payable": false,
      "stateMutability": "nonpayable",
      "type": "function"
    }
  ],
  "bytecode": "0x608060405260008060146101000a81548160ff02191690831515021790555034801561002a57600080fd5b50336000806101000a81548173ffffffffffffffffffffffffffffffffffffffff021916908373ffffffffffffffffffffffffffffffffffffffff160217905550600060018190555060006002819055506001600360003373ffffffffffffffffffffffffffffffffffffffff1673ffffffffffffffffffffffffffffffffffffffff16815260200190815260200160002060006101000a81548160ff021916908360028111156100d757fe5b0217905550611cd4806100eb6000396000f3fe6080604052600436106101095760003560e01c806375f12b2111610095578063b03b4bcf11610064578063b03b4bcf14610715578063ca6158cb14610790578063d0f2e2b7146107bb578063d246992e14610836578063e7fb74c7146108a557610109565b806375f12b21146105425780637e1dcaf7146105715780638da5cb5b14610588578063ad4b9cfb146105df57610109565b80633d4d3600116100dc5780633d4d36001461031a57806341c0e1b51461045e5780634e427852146104755780636ce5c206146104a057806370480275146104f157610109565b8063069a3d4c1461010e5780631385d24c146101ea578063200fffca14610201578063225d29a1146102a7575b600080fd5b34801561011a57600080fd5b506101e86004803603606081101561013157600080fd5b81019080803590602001909291908035906020019064010000000081111561015857600080fd5b82018360208201111561016a57600080fd5b8035906020019184600183028401116401000000008311171561018c57600080fd5b91908080601f016020809104026020016040519081016040528093929190818152602001838380828437600081840152601f19601f820116905080830192505050505050509192919290803590602001909291905050506108d3565b005b3480156101f657600080fd5b506101ff610c26565b005b34801561020d57600080fd5b506102506004803603602081101561022457600080fd5b81019080803573ffffffffffffffffffffffffffffffffffffffff169060200190929190505050610cab565b6040518080602001828103825283818151815260200191508051906020019060200280838360005b83811015610293578082015181840152602081019050610278565b505050509050019250505060405180910390f35b3480156102b357600080fd5b506102f6600480360360208110156102ca57600080fd5b81019080803573ffffffffffffffffffffffffffffffffffffffff169060200190929190505050610d42565b6040518082600281111561030657fe5b60ff16815260200191505060405180910390f35b34801561032657600080fd5b506103536004803603602081101561033d57600080fd5b8101908080359060200190929190505050610d62565b604051808881526020018781526020018060200186815260200185600181111561037957fe5b60ff1681526020018473ffffffffffffffffffffffffffffffffffffffff1673ffffffffffffffffffffffffffffffffffffffff1681526020018373ffffffffffffffffffffffffffffffffffffffff1673ffffffffffffffffffffffffffffffffffffffff168152602001828103825287818151815260200191508051906020019080838360005b8381101561041d578082015181840152602081019050610402565b50505050905090810190601f16801561044a5780820380516001836020036101000a031916815260200191505b509850505050505050505060405180910390f35b34801561046a57600080fd5b50610473610e89565b005b34801561048157600080fd5b5061048a610f1c565b6040518082815260200191505060405180910390f35b3480156104ac57600080fd5b506104ef600480360360208110156104c357600080fd5b81019080803573ffffffffffffffffffffffffffffffffffffffff169060200190929190505050610f22565b005b3480156104fd57600080fd5b506105406004803603602081101561051457600080fd5b81019080803573ffffffffffffffffffffffffffffffffffffffff169060200190929190505050611151565b005b34801561054e57600080fd5b506105576112e1565b604051808215151515815260200191505060405180910390f35b34801561057d57600080fd5b506105866112f4565b005b34801561059457600080fd5b5061059d611591565b604051808273ffffffffffffffffffffffffffffffffffffffff1673ffffffffffffffffffffffffffffffffffffffff16815260200191505060405180910390f35b3480156105eb57600080fd5b506106186004803603602081101561060257600080fd5b81019080803590602001909291905050506115b6565b60405180888152602001878152602001806020018681526020018581526020018473ffffffffffffffffffffffffffffffffffffffff1673ffffffffffffffffffffffffffffffffffffffff1681526020018373ffffffffffffffffffffffffffffffffffffffff1673ffffffffffffffffffffffffffffffffffffffff168152602001828103825287818151815260200191508051906020019080838360005b838110156106d45780820151818401526020810190506106b9565b50505050905090810190601f1680156107015780820380516001836020036101000a031916815260200191505b509850505050505050505060405180910390f35b34801561072157600080fd5b5061074e6004803603602081101561073857600080fd5b8101908080359060200190929190505050611780565b604051808273ffffffffffffffffffffffffffffffffffffffff1673ffffffffffffffffffffffffffffffffffffffff16815260200191505060405180910390f35b34801561079c57600080fd5b506107a56117c0565b6040518082815260200191505060405180910390f35b3480156107c757600080fd5b506107f4600480360360208110156107de57600080fd5b81019080803590602001909291905050506117c6565b604051808273ffffffffffffffffffffffffffffffffffffffff1673ffffffffffffffffffffffffffffffffffffffff16815260200191505060405180910390f35b34801561084257600080fd5b5061088f6004803603604081101561085957600080fd5b81019080803573ffffffffffffffffffffffffffffffffffffffff16906020019092919080359060200190929190505050611804565b6040518082815260200191505060405180910390f35b6108d1600480360360208110156108bb57600080fd5b8101908080359060200190929190505050611832565b005b600060149054906101000a900460ff16156108ed57600080fd5b600160028111156108fa57fe5b600360003373ffffffffffffffffffffffffffffffffffffffff1673ffffffffffffffffffffffffffffffffffffffff16815260200190815260200160002060009054906101000a900460ff16600281111561095257fe5b14806109bf575060028081111561096557fe5b600360003373ffffffffffffffffffffffffffffffffffffffff1673ffffffffffffffffffffffffffffffffffffffff16815260200190815260200160002060009054906101000a900460ff1660028111156109bd57fe5b145b6109c857600080fd5b3373ffffffffffffffffffffffffffffffffffffffff166005600085815260200190815260200160002060000160009054906101000a900473ffffffffffffffffffffffffffffffffffffffff1673ffffffffffffffffffffffffffffffffffffffff1614610a3657600080fd5b60608290506000815111610a4957600080fd5b60008211610a5657600080fd5b60016002600082825401925050819055506040518060e00160405280858152602001600254815260200184815260200183815260200160006001811115610a9957fe5b81526020013373ffffffffffffffffffffffffffffffffffffffff168152602001600073ffffffffffffffffffffffffffffffffffffffff1681525060066000600254815260200190815260200160002060008201518160000155602082015181600101556040820151816002019080519060200190610b1a929190611b86565b506060820151816003015560808201518160040160006101000a81548160ff02191690836001811115610b4957fe5b021790555060a08201518160040160016101000a81548173ffffffffffffffffffffffffffffffffffffffff021916908373ffffffffffffffffffffffffffffffffffffffff16021790555060c08201518160050160006101000a81548173ffffffffffffffffffffffffffffffffffffffff021916908373ffffffffffffffffffffffffffffffffffffffff1602179055509050507f5cedb4b4e9d21f2b6ae92d858fd47c1f6ef4af540c48aea4cccc861bdfbffb6984600254604051808381526020018281526020019250505060405180910390a150505050565b6000809054906101000a900473ffffffffffffffffffffffffffffffffffffffff1673ffffffffffffffffffffffffffffffffffffffff163373ffffffffffffffffffffffffffffffffffffffff1614610c7f57600080fd5b600060149054906101000a900460ff1615600060146101000a81548160ff021916908315150217905550565b6060600460008373ffffffffffffffffffffffffffffffffffffffff1673ffffffffffffffffffffffffffffffffffffffff168152602001908152602001600020805480602002602001604051908101604052809291908181526020018280548015610d3657602002820191906000526020600020905b815481526020019060010190808311610d22575b50505050509050919050565b60036020528060005260406000206000915054906101000a900460ff1681565b6006602052806000526040600020600091509050806000015490806001015490806002018054600181600116156101000203166002900480601f016020809104026020016040519081016040528092919081815260200182805460018160011615610100020316600290048015610e1a5780601f10610def57610100808354040283529160200191610e1a565b820191906000526020600020905b815481529060010190602001808311610dfd57829003601f168201915b5050505050908060030154908060040160009054906101000a900460ff16908060040160019054906101000a900473ffffffffffffffffffffffffffffffffffffffff16908060050160009054906101000a900473ffffffffffffffffffffffffffffffffffffffff16905087565b6000809054906101000a900473ffffffffffffffffffffffffffffffffffffffff1673ffffffffffffffffffffffffffffffffffffffff163373ffffffffffffffffffffffffffffffffffffffff1614610ee257600080fd5b6000809054906101000a900473ffffffffffffffffffffffffffffffffffffffff1673ffffffffffffffffffffffffffffffffffffffff16ff5b60015481565b600060149054906101000a900460ff1615610f3c57600080fd5b60016002811115610f4957fe5b600360003373ffffffffffffffffffffffffffffffffffffffff1673ffffffffffffffffffffffffffffffffffffffff16815260200190815260200160002060009054906101000a900460ff166002811115610fa157fe5b14610fab57600080fd5b60016002811115610fb857fe5b600360008373ffffffffffffffffffffffffffffffffffffffff1673ffffffffffffffffffffffffffffffffffffffff16815260200190815260200160002060009054906101000a900460ff16600281111561101057fe5b141561101b57600080fd5b60028081111561102757fe5b600360008373ffffffffffffffffffffffffffffffffffffffff1673ffffffffffffffffffffffffffffffffffffffff16815260200190815260200160002060009054906101000a900460ff16600281111561107f57fe5b141561108a57600080fd5b6002600360008373ffffffffffffffffffffffffffffffffffffffff1673ffffffffffffffffffffffffffffffffffffffff16815260200190815260200160002060006101000a81548160ff021916908360028111156110e657fe5b02179055507f252b63b0cbcbe73545bdba2cb1d1fa100be757de4426c7e51638de9980bc5bb081604051808273ffffffffffffffffffffffffffffffffffffffff1673ffffffffffffffffffffffffffffffffffffffff16815260200191505060405180910390a150565b6000809054906101000a900473ffffffffffffffffffffffffffffffffffffffff1673ffffffffffffffffffffffffffffffffffffffff163373ffffffffffffffffffffffffffffffffffffffff16146111aa57600080fd5b600160028111156111b757fe5b600360008373ffffffffffffffffffffffffffffffffffffffff1673ffffffffffffffffffffffffffffffffffffffff16815260200190815260200160002060009054906101000a900460ff16600281111561120f57fe5b141561121a57600080fd5b6001600360008373ffffffffffffffffffffffffffffffffffffffff1673ffffffffffffffffffffffffffffffffffffffff16815260200190815260200160002060006101000a81548160ff0219169083600281111561127657fe5b02179055507f44d6d25963f097ad14f29f06854a01f575648a1ef82f30e562ccd3889717e33981604051808273ffffffffffffffffffffffffffffffffffffffff1673ffffffffffffffffffffffffffffffffffffffff16815260200191505060405180910390a150565b600060149054906101000a900460ff1681565b600060149054906101000a900460ff161561130e57600080fd5b6001600281111561131b57fe5b600360003373ffffffffffffffffffffffffffffffffffffffff1673ffffffffffffffffffffffffffffffffffffffff16815260200190815260200160002060009054906101000a900460ff16600281111561137357fe5b14806113e0575060028081111561138657fe5b600360003373ffffffffffffffffffffffffffffffffffffffff1673ffffffffffffffffffffffffffffffffffffffff16815260200190815260200160002060009054906101000a900460ff1660028111156113de57fe5b145b6113e957600080fd5b60018060008282540192505081905550611401611c06565b33816000019073ffffffffffffffffffffffffffffffffffffffff16908173ffffffffffffffffffffffffffffffffffffffff16815250508060056000600154815260200190815260200160002060008201518160000160006101000a81548173ffffffffffffffffffffffffffffffffffffffff021916908373ffffffffffffffffffffffffffffffffffffffff16021790555060208201518160010190805190602001906114b2929190611c36565b50905050600460003373ffffffffffffffffffffffffffffffffffffffff1673ffffffffffffffffffffffffffffffffffffffff16815260200190815260200160002060015490806001815401808255809150509060018203906000526020600020016000909192909190915055507f73ae25dae4902cdc33c050e005f61cfb23cbcf4abe974e1f59614385d04deae333600154604051808373ffffffffffffffffffffffffffffffffffffffff1673ffffffffffffffffffffffffffffffffffffffff1681526020018281526020019250505060405180910390a150565b6000809054906101000a900473ffffffffffffffffffffffffffffffffffffffff1681565b60008060606000806000806006600089815260200190815260200160002060000154965060066000898152602001908152602001600020600101549550600660008981526020019081526020016000206002018054600181600116156101000203166002900480601f01602080910402602001604051908101604052809291908181526020018280546001816001161561010002031660029004801561169d5780601f106116725761010080835404028352916020019161169d565b820191906000526020600020905b81548152906001019060200180831161168057829003601f168201915b50505050509450600660008981526020019081526020016000206003015493506006600089815260200190815260200160002060040160009054906101000a900460ff1660018111156116ec57fe5b92506006600089815260200190815260200160002060040160019054906101000a900473ffffffffffffffffffffffffffffffffffffffff1691506006600089815260200190815260200160002060050160009054906101000a900473ffffffffffffffffffffffffffffffffffffffff169050868686868686869650965096509650965096509650919395979092949650565b60006005600083815260200190815260200160002060000160009054906101000a900473ffffffffffffffffffffffffffffffffffffffff169050919050565b60025481565b60056020528060005260406000206000915090508060000160009054906101000a900473ffffffffffffffffffffffffffffffffffffffff16905081565b6004602052816000526040600020818154811061181d57fe5b90600052602060002001600091509150505481565b600060149054906101000a900460ff161561184c57600080fd5b806000600181111561185a57fe5b6006600083815260200190815260200160002060040160009054906101000a900460ff16600181111561188957fe5b1461189357600080fd5b813373ffffffffffffffffffffffffffffffffffffffff166006600083815260200190815260200160002060040160019054906101000a900473ffffffffffffffffffffffffffffffffffffffff1673ffffffffffffffffffffffffffffffffffffffff16141561190357600080fd5b60066000848152602001908152602001600020600301548034101561192757600080fd5b8373__Warehouse_____________________________6350785835600660008881526020019081526020016000206040518263ffffffff1660e01b81526004018082815260200191505060006040518083038186803b15801561198957600080fd5b505af415801561199d573d6000803e3d6000fd5b50505050336006600087815260200190815260200160002060050160006101000a81548173ffffffffffffffffffffffffffffffffffffffff021916908373ffffffffffffffffffffffffffffffffffffffff1602179055506006600086815260200190815260200160002060040160019054906101000a900473ffffffffffffffffffffffffffffffffffffffff1673ffffffffffffffffffffffffffffffffffffffff166108fc60066000888152602001908152602001600020600301549081150290604051600060405180830381858888f19350505050158015611a88573d6000803e3d6000fd5b507f49934bdc44c552b328ef963b26b06602ad0b22bb4d8d1a9f19cdde4e3a2539f6600660008781526020019081526020016000206000015486604051808381526020018281526020019250505060405180910390a1600060066000838152602001908152602001600020600301549050600081340390506006600084815260200190815260200160002060050160009054906101000a900473ffffffffffffffffffffffffffffffffffffffff1673ffffffffffffffffffffffffffffffffffffffff166108fc829081150290604051600060405180830381858888f19350505050158015611b7c573d6000803e3d6000fd5b5050505050505050565b828054600181600116156101000203166002900490600052602060002090601f016020900481019282601f10611bc757805160ff1916838001178555611bf5565b82800160010185558215611bf5579182015b82811115611bf4578251825591602001919060010190611bd9565b5b509050611c029190611c83565b5090565b6040518060400160405280600073ffffffffffffffffffffffffffffffffffffffff168152602001606081525090565b828054828255906000526020600020908101928215611c72579160200282015b82811115611c71578251825591602001919060010190611c56565b5b509050611c7f9190611c83565b5090565b611ca591905b80821115611ca1576000816000905550600101611c89565b5090565b9056fea165627a7a723058206957064bff55a7cef0a93073940e07af504ca7de89388f14563e74bb1621d1b80029",
  "source": "pragma solidity ^0.5.8;\n\nimport \"./Warehouse.sol\";\n\ncontract Marketplace {\n\n  // set owner\n  address payable public owner;\n\n  // circuit breaker\n\n  bool public stopped = false;\n\n  /*\n    storeId: total number of stores opened\n    itemId: total number of items listed\n  */\n  uint public storeId;\n  uint public itemId;\n\n  /*\n    userStatus: privileges granted to addresses\n    storeOwnerList: stores owned by each address\n    storeList: storeId mapped to Store\n    itemList: itemId mapped to Item\n  */\n  mapping (address => Warehouse.Status) public userStatus;\n  mapping (address => uint[]) public storeownerList;\n  mapping (uint => Warehouse.Store) public storeList;\n  mapping (uint => Warehouse.Item) public itemList;\n\n  event AdminAdded(address newAdmin);\n  event StoreownerAdded(address storeOwner);\n\n  event StoreOpened(address storeowner, uint storeId);\n  event StoreClosed(address storeowner, uint storeId);\n\n  event ItemListed(uint storeId, uint itemId);\n  event ItemSold(uint storeId, uint itemId);\n  event ItemUnlisted(uint storeId, uint itemId);\n\n  modifier verifyOwner { require(msg.sender == owner); _;}\n  modifier verifyAdmin { require(userStatus[msg.sender] == Warehouse.Status.Admin); _;}\n  modifier verifyAdminOrStoreowner { require(userStatus[msg.sender] == Warehouse.Status.Admin || userStatus[msg.sender] == Warehouse.Status.Storeowner); _;}\n  modifier verifyBuyerIsNotSeller (uint _sku) { require(itemList[_sku].seller != msg.sender); _;}\n\n  modifier forSale (uint _sku) {require(itemList[_sku].state == Warehouse.State.ForSale); _;}\n\n  modifier paidEnough(uint _price) {require(msg.value >= _price); _;}\n  modifier checkValue(uint _sku) {\n    _;\n    uint _price = itemList[_sku].price;\n    uint amountToRefund = msg.value - _price;\n    itemList[_sku].buyer.transfer(amountToRefund);\n  }\n\n  modifier stopInEmergency { require(!stopped); _;}\n\n  constructor() public {\n    owner = msg.sender;\n    storeId = 0;\n    itemId = 0;\n\n    // initialise contract creator as admin\n    userStatus[msg.sender] = Warehouse.Status.Admin;\n  }\n\n  /** @dev Sets an address as Admin\n    * @param _address Address to be set as Admin\n    */\n  function addAdmin(address _address) public verifyOwner {\n    // ensure address to be added is not already an admin\n    require(userStatus[_address] != Warehouse.Status.Admin);\n\n    userStatus[_address] = Warehouse.Status.Admin;\n    emit AdminAdded(_address);\n  }\n\n  /** @dev Sets an address as storeOwner\n    * @param _address Address to be set as Storeowner\n    */\n  function addStoreowner(address _address)\n    public\n    stopInEmergency\n    verifyAdmin\n  {\n    // ensure address to be added is not already an admin\n    require(userStatus[_address] != Warehouse.Status.Admin);\n\n    // ensure address to be added is not already a storeowner\n    require(userStatus[_address] != Warehouse.Status.Storeowner);\n\n    userStatus[_address] = Warehouse.Status.Storeowner;\n    emit StoreownerAdded(_address);\n  }\n\n  /** @dev Opens a store for the current address\n    */\n\n  function openStore()\n    public\n    stopInEmergency\n    verifyAdminOrStoreowner\n  {\n    storeId += 1;\n\n    Warehouse.Store memory newStore;\n    newStore.storeowner = msg.sender;\n    storeList[storeId] = newStore;\n    storeownerList[msg.sender].push(storeId);\n\n    emit StoreOpened(msg.sender, storeId);\n\n  }\n\n  /** @dev Lists an item for sale\n    * @param _storeId The store to list the item\n    * @param _name The name of the item\n    * @param _price The price of the item\n    */\n  function listItem(uint _storeId, string memory _name, uint _price)\n    public\n    stopInEmergency\n    verifyAdminOrStoreowner\n  {\n    // ensure address is storeowner of the store where item is to be listed\n    require(storeList[_storeId].storeowner == msg.sender);\n\n    // ensure name is not empty\n    bytes memory tempName = bytes(_name);\n    require(tempName.length > 0);\n\n    // ensure price is positive\n    require(_price > 0);\n\n    itemId += 1;\n\n    itemList[itemId] = Warehouse.Item({place: _storeId, sku: itemId, name: _name,  price: _price, state: Warehouse.State.ForSale,\n      seller: msg.sender, buyer: address(0)});\n    emit ItemListed(_storeId, itemId);\n\n  }\n\n  /** @dev Buys an item listed for sale\n    * @param sku The id of the item to be bought\n    */\n  function buyItem(uint sku)\n    public\n    payable\n    stopInEmergency\n    forSale(sku)\n    verifyBuyerIsNotSeller(sku)\n    paidEnough(itemList[sku].price)\n    checkValue(sku)\n  {\n    Warehouse.updateItemSold(itemList[sku]);\n    itemList[sku].buyer = msg.sender;\n    itemList[sku].seller.transfer(itemList[sku].price);\n    emit ItemSold(itemList[sku].place, sku);\n  }\n\n  /** @dev Sets an address as storeOwner\n    * @param sku The id of the item which details are sought\n    * @return place The store where the item is Listed\n    * @return sku The item ID\n    * @return name The name of the item\n    * @return state Whether the item has been sold\n    * @return seller The address of the Seller\n    * @return buyer The address of the Buyer (if any)\n    */\n  function fetchItem(uint _sku)\n    public\n    view\n    returns (uint place, uint sku, string memory name, uint price, uint state, address seller, address buyer)\n  {\n    place = itemList[_sku].place;\n    sku = itemList[_sku].sku;\n    name = itemList[_sku].name;\n    price = itemList[_sku].price;\n    state = uint(itemList[_sku].state);\n    seller = itemList[_sku].seller;\n    buyer = itemList[_sku].buyer;\n    return (place, sku, name, price, state, seller, buyer);\n  }\n\n  /** @dev Return the stores opened by an address\n    * @param _address Storeowner address to look up\n    * @return stores A list of stores opened by the address given\n    */\n  function fetchStoresByAddress(address _address)\n    public\n    view\n    returns (uint[] memory stores)\n  {\n    stores = storeownerList[_address];\n  }\n\n  /** @dev Return the storeowner of a stored\n    * @param _storeId The Store to look up\n    * @return _storeowner The address of the storeowner\n    */\n  function fetchStoreowner(uint _storeId)\n    public\n    view\n    returns (address _storeowner)\n  {\n    _storeowner = storeList[_storeId].storeowner;\n  }\n\n  /** @dev Destroy the contract\n    */\n  function kill()\n    public\n    verifyOwner\n  {\n    selfdestruct(owner);\n  }\n\n  /** @dev Stop the contract\n    */\n  function toggleContractActive()\n    public\n    verifyOwner\n  {\n    stopped = !stopped;\n  }\n\n}\n",
  "sourcePath": "/home/gt/marketplace/contracts/Marketplace.sol",
  "compiler": {
    "name": "solc",
    "version": "0.5.8+commit.23d335f2.Emscripten.clang"
  },
  "schemaVersion": "3.0.11",
  "updatedAt": "2019-07-30T16:11:11.431Z",
  "devdoc": {
    "methods": {
      "addAdmin(address)": {
        "details": "Sets an address as Admin",
        "params": {
          "_address": "Address to be set as Admin"
        }
      },
      "addStoreowner(address)": {
        "details": "Sets an address as storeOwner",
        "params": {
          "_address": "Address to be set as Storeowner"
        }
      },
      "buyItem(uint256)": {
        "details": "Buys an item listed for sale",
        "params": {
          "sku": "The id of the item to be bought"
        }
      },
      "fetchItem(uint256)": {
        "details": "Sets an address as storeOwner",
        "params": {
          "sku": "The id of the item which details are sought"
        },
        "return": "place The store where the item is Listedsku The item IDname The name of the itemstate Whether the item has been soldseller The address of the Sellerbuyer The address of the Buyer (if any)"
      },
      "fetchStoreowner(uint256)": {
        "details": "Return the storeowner of a stored",
        "params": {
          "_storeId": "The Store to look up"
        },
        "return": "_storeowner The address of the storeowner"
      },
      "fetchStoresByAddress(address)": {
        "details": "Return the stores opened by an address",
        "params": {
          "_address": "Storeowner address to look up"
        },
        "return": "stores A list of stores opened by the address given"
      },
      "kill()": {
        "details": "Destroy the contract"
      },
      "listItem(uint256,string,uint256)": {
        "details": "Lists an item for sale",
        "params": {
          "_name": "The name of the item",
          "_price": "The price of the item",
          "_storeId": "The store to list the item"
        }
      },
      "openStore()": {
        "details": "Opens a store for the current address"
      },
      "toggleContractActive()": {
        "details": "Stop the contract"
      }
    }
  },
  "userdoc": {
    "methods": {}
  }
}