{
  "contractName": "Marketplace",
  "abi": [
    {
      "constant": true,
      "inputs": [
        {
          "name": "",
          "type": "address"
        }
      ],
      "name": "userStatus",
      "outputs": [
        {
          "name": "",
          "type": "uint8"
        }
      ],
      "payable": false,
      "stateMutability": "view",
      "type": "function"
    },
    {
      "constant": true,
      "inputs": [
        {
          "name": "",
          "type": "uint256"
        }
      ],
      "name": "itemList",
      "outputs": [
        {
          "name": "place",
          "type": "uint256"
        },
        {
          "name": "sku",
          "type": "uint256"
        },
        {
          "name": "name",
          "type": "string"
        },
        {
          "name": "price",
          "type": "uint256"
        },
        {
          "name": "state",
          "type": "uint8"
        },
        {
          "name": "seller",
          "type": "address"
        },
        {
          "name": "buyer",
          "type": "address"
        }
      ],
      "payable": false,
      "stateMutability": "view",
      "type": "function"
    },
    {
      "constant": true,
      "inputs": [
        {
          "name": "",
          "type": "uint256"
        }
      ],
      "name": "storeList",
      "outputs": [
        {
          "name": "storeowner",
          "type": "address"
        }
      ],
      "payable": false,
      "stateMutability": "view",
      "type": "function"
    },
    {
      "constant": true,
      "inputs": [
        {
          "name": "",
          "type": "address"
        },
        {
          "name": "",
          "type": "uint256"
        }
      ],
      "name": "storeownerList",
      "outputs": [
        {
          "name": "",
          "type": "uint256"
        }
      ],
      "payable": false,
      "stateMutability": "view",
      "type": "function"
    },
    {
      "inputs": [],
      "payable": false,
      "stateMutability": "nonpayable",
      "type": "constructor"
    },
    {
      "anonymous": false,
      "inputs": [
        {
          "indexed": false,
          "name": "newAdmin",
          "type": "address"
        }
      ],
      "name": "AdminAdded",
      "type": "event"
    },
    {
      "anonymous": false,
      "inputs": [
        {
          "indexed": false,
          "name": "storeOwner",
          "type": "address"
        }
      ],
      "name": "StoreownerAdded",
      "type": "event"
    },
    {
      "anonymous": false,
      "inputs": [
        {
          "indexed": false,
          "name": "storeowner",
          "type": "address"
        },
        {
          "indexed": false,
          "name": "storeId",
          "type": "uint256"
        }
      ],
      "name": "StoreOpened",
      "type": "event"
    },
    {
      "anonymous": false,
      "inputs": [
        {
          "indexed": false,
          "name": "storeowner",
          "type": "address"
        },
        {
          "indexed": false,
          "name": "storeId",
          "type": "uint256"
        }
      ],
      "name": "StoreClosed",
      "type": "event"
    },
    {
      "anonymous": false,
      "inputs": [
        {
          "indexed": false,
          "name": "storeId",
          "type": "uint256"
        },
        {
          "indexed": false,
          "name": "itemId",
          "type": "uint256"
        }
      ],
      "name": "ItemListed",
      "type": "event"
    },
    {
      "anonymous": false,
      "inputs": [
        {
          "indexed": false,
          "name": "storeId",
          "type": "uint256"
        },
        {
          "indexed": false,
          "name": "itemId",
          "type": "uint256"
        }
      ],
      "name": "ItemSold",
      "type": "event"
    },
    {
      "anonymous": false,
      "inputs": [
        {
          "indexed": false,
          "name": "storeId",
          "type": "uint256"
        },
        {
          "indexed": false,
          "name": "itemId",
          "type": "uint256"
        }
      ],
      "name": "ItemUnlisted",
      "type": "event"
    },
    {
      "constant": false,
      "inputs": [
        {
          "name": "_address",
          "type": "address"
        }
      ],
      "name": "setAdmin",
      "outputs": [],
      "payable": false,
      "stateMutability": "nonpayable",
      "type": "function"
    },
    {
      "constant": false,
      "inputs": [
        {
          "name": "_address",
          "type": "address"
        }
      ],
      "name": "addStoreowner",
      "outputs": [],
      "payable": false,
      "stateMutability": "nonpayable",
      "type": "function"
    },
    {
      "constant": false,
      "inputs": [],
      "name": "openStore",
      "outputs": [],
      "payable": false,
      "stateMutability": "nonpayable",
      "type": "function"
    },
    {
      "constant": false,
      "inputs": [
        {
          "name": "_storeId",
          "type": "uint256"
        },
        {
          "name": "_name",
          "type": "string"
        },
        {
          "name": "_price",
          "type": "uint256"
        }
      ],
      "name": "listItem",
      "outputs": [],
      "payable": false,
      "stateMutability": "nonpayable",
      "type": "function"
    },
    {
      "constant": false,
      "inputs": [
        {
          "name": "sku",
          "type": "uint256"
        }
      ],
      "name": "buyItem",
      "outputs": [],
      "payable": true,
      "stateMutability": "payable",
      "type": "function"
    },
    {
      "constant": true,
      "inputs": [
        {
          "name": "_sku",
          "type": "uint256"
        }
      ],
      "name": "fetchItem",
      "outputs": [
        {
          "name": "place",
          "type": "uint256"
        },
        {
          "name": "sku",
          "type": "uint256"
        },
        {
          "name": "name",
          "type": "string"
        },
        {
          "name": "price",
          "type": "uint256"
        },
        {
          "name": "state",
          "type": "uint256"
        },
        {
          "name": "seller",
          "type": "address"
        },
        {
          "name": "buyer",
          "type": "address"
        }
      ],
      "payable": false,
      "stateMutability": "view",
      "type": "function"
    },
    {
      "constant": true,
      "inputs": [
        {
          "name": "_address",
          "type": "address"
        }
      ],
      "name": "fetchStoresByAddress",
      "outputs": [
        {
          "name": "stores",
          "type": "uint256[]"
        }
      ],
      "payable": false,
      "stateMutability": "view",
      "type": "function"
    }
  ],
  "bytecode": "0x608060405234801561001057600080fd5b50336000806101000a81548173ffffffffffffffffffffffffffffffffffffffff021916908373ffffffffffffffffffffffffffffffffffffffff160217905550600060018190555060006002819055506001600360003373ffffffffffffffffffffffffffffffffffffffff1673ffffffffffffffffffffffffffffffffffffffff16815260200190815260200160002060006101000a81548160ff021916908360028111156100bd57fe5b021790555061168a806100d16000396000f3006080604052600436106100af576000357c0100000000000000000000000000000000000000000000000000000000900463ffffffff168063069a3d4c146100b4578063200fffca14610131578063225d29a1146101c95780633d4d36001461022e5780636ce5c20614610364578063704b6c02146103a75780637e1dcaf7146103ea578063ad4b9cfb14610401578063d0f2e2b714610529578063d246992e14610596578063e7fb74c7146105f7575b600080fd5b3480156100c057600080fd5b5061012f60048036038101908080359060200190929190803590602001908201803590602001908080601f016020809104026020016040519081016040528093929190818152602001838380828437820191505050505050919291929080359060200190929190505050610617565b005b34801561013d57600080fd5b50610172600480360381019080803573ffffffffffffffffffffffffffffffffffffffff169060200190929190505050610934565b6040518080602001828103825283818151815260200191508051906020019060200280838360005b838110156101b557808201518184015260208101905061019a565b505050509050019250505060405180910390f35b3480156101d557600080fd5b5061020a600480360381019080803573ffffffffffffffffffffffffffffffffffffffff1690602001909291905050506109cb565b6040518082600281111561021a57fe5b60ff16815260200191505060405180910390f35b34801561023a57600080fd5b50610259600480360381019080803590602001909291905050506109eb565b604051808881526020018781526020018060200186815260200185600181111561027f57fe5b60ff1681526020018473ffffffffffffffffffffffffffffffffffffffff1673ffffffffffffffffffffffffffffffffffffffff1681526020018373ffffffffffffffffffffffffffffffffffffffff1673ffffffffffffffffffffffffffffffffffffffff168152602001828103825287818151815260200191508051906020019080838360005b83811015610323578082015181840152602081019050610308565b50505050905090810190601f1680156103505780820380516001836020036101000a031916815260200191505b509850505050505050505060405180910390f35b34801561037057600080fd5b506103a5600480360381019080803573ffffffffffffffffffffffffffffffffffffffff169060200190929190505050610b12565b005b3480156103b357600080fd5b506103e8600480360381019080803573ffffffffffffffffffffffffffffffffffffffff169060200190929190505050610cbc565b005b3480156103f657600080fd5b506103ff610df4565b005b34801561040d57600080fd5b5061042c60048036038101908080359060200190929190505050611079565b60405180888152602001878152602001806020018681526020018581526020018473ffffffffffffffffffffffffffffffffffffffff1673ffffffffffffffffffffffffffffffffffffffff1681526020018373ffffffffffffffffffffffffffffffffffffffff1673ffffffffffffffffffffffffffffffffffffffff168152602001828103825287818151815260200191508051906020019080838360005b838110156104e85780820151818401526020810190506104cd565b50505050905090810190601f1680156105155780820380516001836020036101000a031916815260200191505b509850505050505050505060405180910390f35b34801561053557600080fd5b5061055460048036038101908080359060200190929190505050611243565b604051808273ffffffffffffffffffffffffffffffffffffffff1673ffffffffffffffffffffffffffffffffffffffff16815260200191505060405180910390f35b3480156105a257600080fd5b506105e1600480360381019080803573ffffffffffffffffffffffffffffffffffffffff16906020019092919080359060200190929190505050611281565b6040518082815260200191505060405180910390f35b610615600480360381019080803590602001909291905050506112b1565b005b6001600281111561062457fe5b600360003373ffffffffffffffffffffffffffffffffffffffff1673ffffffffffffffffffffffffffffffffffffffff16815260200190815260200160002060009054906101000a900460ff16600281111561067c57fe5b14806106e9575060028081111561068f57fe5b600360003373ffffffffffffffffffffffffffffffffffffffff1673ffffffffffffffffffffffffffffffffffffffff16815260200190815260200160002060009054906101000a900460ff1660028111156106e757fe5b145b15156106f457600080fd5b3373ffffffffffffffffffffffffffffffffffffffff166005600085815260200190815260200160002060000160009054906101000a900473ffffffffffffffffffffffffffffffffffffffff1673ffffffffffffffffffffffffffffffffffffffff1614151561076457600080fd5b7f5cedb4b4e9d21f2b6ae92d858fd47c1f6ef4af540c48aea4cccc861bdfbffb6983600254604051808381526020018281526020019250505060405180910390a160e0604051908101604052808481526020016002548152602001838152602001828152602001600060018111156107d857fe5b81526020013373ffffffffffffffffffffffffffffffffffffffff168152602001600073ffffffffffffffffffffffffffffffffffffffff168152506006600060025481526020019081526020016000206000820151816000015560208201518160010155604082015181600201908051906020019061085992919061153c565b506060820151816003015560808201518160040160006101000a81548160ff0219169083600181111561088857fe5b021790555060a08201518160040160016101000a81548173ffffffffffffffffffffffffffffffffffffffff021916908373ffffffffffffffffffffffffffffffffffffffff16021790555060c08201518160050160006101000a81548173ffffffffffffffffffffffffffffffffffffffff021916908373ffffffffffffffffffffffffffffffffffffffff1602179055509050506001600260008282540192505081905550505050565b6060600460008373ffffffffffffffffffffffffffffffffffffffff1673ffffffffffffffffffffffffffffffffffffffff1681526020019081526020016000208054806020026020016040519081016040528092919081815260200182805480156109bf57602002820191906000526020600020905b8154815260200190600101908083116109ab575b50505050509050919050565b60036020528060005260406000206000915054906101000a900460ff1681565b6006602052806000526040600020600091509050806000015490806001015490806002018054600181600116156101000203166002900480601f016020809104026020016040519081016040528092919081815260200182805460018160011615610100020316600290048015610aa35780601f10610a7857610100808354040283529160200191610aa3565b820191906000526020600020905b815481529060010190602001808311610a8657829003601f168201915b5050505050908060030154908060040160009054906101000a900460ff16908060040160019054906101000a900473ffffffffffffffffffffffffffffffffffffffff16908060050160009054906101000a900473ffffffffffffffffffffffffffffffffffffffff16905087565b60016002811115610b1f57fe5b600360003373ffffffffffffffffffffffffffffffffffffffff1673ffffffffffffffffffffffffffffffffffffffff16815260200190815260200160002060009054906101000a900460ff166002811115610b7757fe5b141515610b8357600080fd5b60016002811115610b9057fe5b600360008373ffffffffffffffffffffffffffffffffffffffff1673ffffffffffffffffffffffffffffffffffffffff16815260200190815260200160002060009054906101000a900460ff166002811115610be857fe5b14151515610bf557600080fd5b6002600360008373ffffffffffffffffffffffffffffffffffffffff1673ffffffffffffffffffffffffffffffffffffffff16815260200190815260200160002060006101000a81548160ff02191690836002811115610c5157fe5b02179055507f252b63b0cbcbe73545bdba2cb1d1fa100be757de4426c7e51638de9980bc5bb081604051808273ffffffffffffffffffffffffffffffffffffffff1673ffffffffffffffffffffffffffffffffffffffff16815260200191505060405180910390a150565b60016002811115610cc957fe5b600360003373ffffffffffffffffffffffffffffffffffffffff1673ffffffffffffffffffffffffffffffffffffffff16815260200190815260200160002060009054906101000a900460ff166002811115610d2157fe5b141515610d2d57600080fd5b6001600360008373ffffffffffffffffffffffffffffffffffffffff1673ffffffffffffffffffffffffffffffffffffffff16815260200190815260200160002060006101000a81548160ff02191690836002811115610d8957fe5b02179055507f44d6d25963f097ad14f29f06854a01f575648a1ef82f30e562ccd3889717e33981604051808273ffffffffffffffffffffffffffffffffffffffff1673ffffffffffffffffffffffffffffffffffffffff16815260200191505060405180910390a150565b610dfc6115bc565b60016002811115610e0957fe5b600360003373ffffffffffffffffffffffffffffffffffffffff1673ffffffffffffffffffffffffffffffffffffffff16815260200190815260200160002060009054906101000a900460ff166002811115610e6157fe5b1480610ece5750600280811115610e7457fe5b600360003373ffffffffffffffffffffffffffffffffffffffff1673ffffffffffffffffffffffffffffffffffffffff16815260200190815260200160002060009054906101000a900460ff166002811115610ecc57fe5b145b1515610ed957600080fd5b33816000019073ffffffffffffffffffffffffffffffffffffffff16908173ffffffffffffffffffffffffffffffffffffffff16815250508060056000600154815260200190815260200160002060008201518160000160006101000a81548173ffffffffffffffffffffffffffffffffffffffff021916908373ffffffffffffffffffffffffffffffffffffffff1602179055506020820151816001019080519060200190610f8a9291906115ec565b50905050600460003373ffffffffffffffffffffffffffffffffffffffff1673ffffffffffffffffffffffffffffffffffffffff16815260200190815260200160002060015490806001815401808255809150509060018203906000526020600020016000909192909190915055507f73ae25dae4902cdc33c050e005f61cfb23cbcf4abe974e1f59614385d04deae333600154604051808373ffffffffffffffffffffffffffffffffffffffff1673ffffffffffffffffffffffffffffffffffffffff1681526020018281526020019250505060405180910390a16001806000828254019250508190555050565b60008060606000806000806006600089815260200190815260200160002060000154965060066000898152602001908152602001600020600101549550600660008981526020019081526020016000206002018054600181600116156101000203166002900480601f0160208091040260200160405190810160405280929190818152602001828054600181600116156101000203166002900480156111605780601f1061113557610100808354040283529160200191611160565b820191906000526020600020905b81548152906001019060200180831161114357829003601f168201915b50505050509450600660008981526020019081526020016000206003015493506006600089815260200190815260200160002060040160009054906101000a900460ff1660018111156111af57fe5b92506006600089815260200190815260200160002060040160019054906101000a900473ffffffffffffffffffffffffffffffffffffffff1691506006600089815260200190815260200160002060050160009054906101000a900473ffffffffffffffffffffffffffffffffffffffff169050868686868686869650965096509650965096509650919395979092949650565b60056020528060005260406000206000915090508060000160009054906101000a900473ffffffffffffffffffffffffffffffffffffffff16905081565b60046020528160005260406000208181548110151561129c57fe5b90600052602060002001600091509150505481565b80600060018111156112bf57fe5b6006600083815260200190815260200160002060040160009054906101000a900460ff1660018111156112ee57fe5b1415156112fa57600080fd5b600660008381526020019081526020016000206003015480341015151561132057600080fd5b82600080336006600088815260200190815260200160002060050160006101000a81548173ffffffffffffffffffffffffffffffffffffffff021916908373ffffffffffffffffffffffffffffffffffffffff1602179055506006600087815260200190815260200160002060040160019054906101000a900473ffffffffffffffffffffffffffffffffffffffff1673ffffffffffffffffffffffffffffffffffffffff166108fc60066000898152602001908152602001600020600301549081150290604051600060405180830381858888f1935050505015801561140b573d6000803e3d6000fd5b5060016006600088815260200190815260200160002060040160006101000a81548160ff0219169083600181111561143f57fe5b02179055507f49934bdc44c552b328ef963b26b06602ad0b22bb4d8d1a9f19cdde4e3a2539f6600660008881526020019081526020016000206000015487604051808381526020018281526020019250505060405180910390a16006600084815260200190815260200160002060030154915081340390506006600084815260200190815260200160002060050160009054906101000a900473ffffffffffffffffffffffffffffffffffffffff1673ffffffffffffffffffffffffffffffffffffffff166108fc829081150290604051600060405180830381858888f19350505050158015611533573d6000803e3d6000fd5b50505050505050565b828054600181600116156101000203166002900490600052602060002090601f016020900481019282601f1061157d57805160ff19168380011785556115ab565b828001600101855582156115ab579182015b828111156115aa57825182559160200191906001019061158f565b5b5090506115b89190611639565b5090565b6040805190810160405280600073ffffffffffffffffffffffffffffffffffffffff168152602001606081525090565b828054828255906000526020600020908101928215611628579160200282015b8281111561162757825182559160200191906001019061160c565b5b5090506116359190611639565b5090565b61165b91905b8082111561165757600081600090555060010161163f565b5090565b905600a165627a7a7230582005ee86329f7195d21b0ea010db55d94a1377aac823f08cad79939234e29594290029",
  "source": "pragma solidity ^0.4.23;\n\ncontract Marketplace {\n\n  // set owner\n  address owner;\n\n  /*\n    storeId: total number of stores opened\n    itemId: total number of items listed\n  */\n  uint storeId;\n  uint itemId;\n\n  /*\n    userStatus: privileges granted to addresses\n    storeOwnerList: stores owned by each address\n    storeList: storeId mapped to Store\n    itemList: itemId mapped to Item\n\n  */\n  mapping (address => Status) public userStatus;\n  mapping (address => uint[]) public storeownerList;\n  mapping (uint => Store) public storeList;\n  mapping (uint => Item) public itemList;\n\n  /*\n    State: status of item listed for ForSale\n    Status: privileges granted to a user\n  */\n\n  enum State {ForSale, Sold}\n  enum Status {Shopper, Admin, Storeowner}\n\n  struct Store {\n    address storeowner;\n    uint[] items;\n  }\n\n  struct Item {\n    uint place;\n    uint sku;\n    string name;\n    uint price;\n    State state;\n    address seller;\n    address buyer;\n  }\n\n  event AdminAdded(address newAdmin);\n  event StoreownerAdded(address storeOwner);\n\n  event StoreOpened(address storeowner, uint storeId);\n  event StoreClosed(address storeowner, uint storeId);\n\n  event ItemListed(uint storeId, uint itemId);\n  event ItemSold(uint storeId, uint itemId);\n  event ItemUnlisted(uint storeId, uint itemId);\n\n  modifier verifyOwner { require(msg.sender == owner); _;}\n  modifier verifyStoreowner { require(userStatus[msg.sender] == Status.Storeowner); _;}\n  modifier verifyAdmin { require(userStatus[msg.sender] == Status.Admin); _;}\n  modifier verifyAdminOrStoreowner { require(userStatus[msg.sender] == Status.Admin || userStatus[msg.sender] == Status.Storeowner); _;}\n\n  modifier forSale (uint _sku) {require(itemList[_sku].state == State.ForSale); _;}\n\n  modifier paidEnough(uint _price) {require(msg.value >= _price); _;}\n  modifier checkValue(uint _sku) {\n    _;\n    uint _price = itemList[_sku].price;\n    uint amountToRefund = msg.value - _price;\n    itemList[_sku].buyer.transfer(amountToRefund);\n  }\n\n  constructor() public {\n    owner = msg.sender;\n    storeId = 0;\n    itemId = 0;\n\n    // initialise contract creator as admin\n    userStatus[msg.sender] = Status.Admin;\n  }\n\n  /*\n    @dev: sets an address as Admin\n    @param addr Address to be set as Admin\n  */\n  function setAdmin(address _address) public verifyAdmin {\n    userStatus[_address] = Status.Admin;\n    emit AdminAdded(_address);\n  }\n\n  /*\n    @dev: sets an address as storeOwner\n    @param addr Address to be set as Storeowner\n  */\n  function addStoreowner(address _address) public verifyAdmin {\n    // ensure user is not already an AdminAdded\n    require(userStatus[_address] != Status.Admin);\n\n    userStatus[_address] = Status.Storeowner;\n    emit StoreownerAdded(_address);\n  }\n\n  function openStore() public verifyAdminOrStoreowner {\n\n    Store memory newStore;\n    newStore.storeowner = msg.sender;\n    storeList[storeId] = newStore;\n    storeownerList[msg.sender].push(storeId);\n\n    emit StoreOpened(msg.sender, storeId);\n\n    storeId += 1;\n\n  }\n\n  function listItem(uint _storeId, string _name, uint _price)\n    public\n    verifyAdminOrStoreowner\n  {\n    require(storeList[_storeId].storeowner == msg.sender);\n    emit ItemListed(_storeId, itemId);\n    itemList[itemId] = Item({place: _storeId, sku: itemId, name: _name,  price: _price, state: State.ForSale,\n      seller: msg.sender, buyer: 0});\n    itemId += 1;\n  }\n\n  function buyItem(uint sku)\n    public\n    payable\n    forSale(sku)\n    paidEnough(itemList[sku].price)\n    checkValue(sku)\n  {\n    itemList[sku].buyer = msg.sender;\n    itemList[sku].seller.transfer(itemList[sku].price);\n    itemList[sku].state = State.Sold;\n    emit ItemSold(itemList[sku].place, sku);\n  }\n\n  function fetchItem(uint _sku)\n    public\n    view\n    returns (uint place, uint sku, string name, uint price, uint state, address seller, address buyer)\n  {\n    place = itemList[_sku].place;\n    sku = itemList[_sku].sku;\n    name = itemList[_sku].name;\n    price = itemList[_sku].price;\n    state = uint(itemList[_sku].state);\n    seller = itemList[_sku].seller;\n    buyer = itemList[_sku].buyer;\n    return (place, sku, name, price, state, seller, buyer);\n  }\n\n  function fetchStoresByAddress(address _address)\n    public\n    view\n    returns (uint[] stores)\n  {\n    stores = storeownerList[_address];\n  }\n\n\n  /*\n  function closeStore() private verifyStoreowner {\n\n  }\n\n\n  */\n\n\n}\n",
  "sourcePath": "/home/tserg/marketplace/contracts/Marketplace.sol",
  "compiler": {
    "name": "solc",
    "version": "0.4.24+commit.e67f0147.Emscripten.clang"
  },
  "schemaVersion": "2.0.1",
  "updatedAt": "2018-07-08T13:07:34.737Z"
}