{
  "contractName": "Marketplace",
  "abi": [
    {
      "constant": true,
      "inputs": [
        {
          "name": "",
          "type": "address"
        }
      ],
      "name": "userStatus",
      "outputs": [
        {
          "name": "",
          "type": "uint8"
        }
      ],
      "payable": false,
      "stateMutability": "view",
      "type": "function"
    },
    {
      "constant": true,
      "inputs": [
        {
          "name": "",
          "type": "uint256"
        }
      ],
      "name": "itemList",
      "outputs": [
        {
          "name": "place",
          "type": "uint256"
        },
        {
          "name": "sku",
          "type": "uint256"
        },
        {
          "name": "name",
          "type": "string"
        },
        {
          "name": "price",
          "type": "uint256"
        },
        {
          "name": "state",
          "type": "uint8"
        },
        {
          "name": "seller",
          "type": "address"
        },
        {
          "name": "buyer",
          "type": "address"
        }
      ],
      "payable": false,
      "stateMutability": "view",
      "type": "function"
    },
    {
      "constant": true,
      "inputs": [],
      "name": "storeId",
      "outputs": [
        {
          "name": "",
          "type": "uint256"
        }
      ],
      "payable": false,
      "stateMutability": "view",
      "type": "function"
    },
    {
      "constant": true,
      "inputs": [],
      "name": "stopped",
      "outputs": [
        {
          "name": "",
          "type": "bool"
        }
      ],
      "payable": false,
      "stateMutability": "view",
      "type": "function"
    },
    {
      "constant": true,
      "inputs": [],
      "name": "owner",
      "outputs": [
        {
          "name": "",
          "type": "address"
        }
      ],
      "payable": false,
      "stateMutability": "view",
      "type": "function"
    },
    {
      "constant": true,
      "inputs": [],
      "name": "itemId",
      "outputs": [
        {
          "name": "",
          "type": "uint256"
        }
      ],
      "payable": false,
      "stateMutability": "view",
      "type": "function"
    },
    {
      "constant": true,
      "inputs": [
        {
          "name": "",
          "type": "uint256"
        }
      ],
      "name": "storeList",
      "outputs": [
        {
          "name": "storeowner",
          "type": "address"
        }
      ],
      "payable": false,
      "stateMutability": "view",
      "type": "function"
    },
    {
      "constant": true,
      "inputs": [
        {
          "name": "",
          "type": "address"
        },
        {
          "name": "",
          "type": "uint256"
        }
      ],
      "name": "storeownerList",
      "outputs": [
        {
          "name": "",
          "type": "uint256"
        }
      ],
      "payable": false,
      "stateMutability": "view",
      "type": "function"
    },
    {
      "inputs": [],
      "payable": false,
      "stateMutability": "nonpayable",
      "type": "constructor"
    },
    {
      "anonymous": false,
      "inputs": [
        {
          "indexed": false,
          "name": "newAdmin",
          "type": "address"
        }
      ],
      "name": "AdminAdded",
      "type": "event"
    },
    {
      "anonymous": false,
      "inputs": [
        {
          "indexed": false,
          "name": "storeOwner",
          "type": "address"
        }
      ],
      "name": "StoreownerAdded",
      "type": "event"
    },
    {
      "anonymous": false,
      "inputs": [
        {
          "indexed": false,
          "name": "storeowner",
          "type": "address"
        },
        {
          "indexed": false,
          "name": "storeId",
          "type": "uint256"
        }
      ],
      "name": "StoreOpened",
      "type": "event"
    },
    {
      "anonymous": false,
      "inputs": [
        {
          "indexed": false,
          "name": "storeowner",
          "type": "address"
        },
        {
          "indexed": false,
          "name": "storeId",
          "type": "uint256"
        }
      ],
      "name": "StoreClosed",
      "type": "event"
    },
    {
      "anonymous": false,
      "inputs": [
        {
          "indexed": false,
          "name": "storeId",
          "type": "uint256"
        },
        {
          "indexed": false,
          "name": "itemId",
          "type": "uint256"
        }
      ],
      "name": "ItemListed",
      "type": "event"
    },
    {
      "anonymous": false,
      "inputs": [
        {
          "indexed": false,
          "name": "storeId",
          "type": "uint256"
        },
        {
          "indexed": false,
          "name": "itemId",
          "type": "uint256"
        }
      ],
      "name": "ItemSold",
      "type": "event"
    },
    {
      "anonymous": false,
      "inputs": [
        {
          "indexed": false,
          "name": "storeId",
          "type": "uint256"
        },
        {
          "indexed": false,
          "name": "itemId",
          "type": "uint256"
        }
      ],
      "name": "ItemUnlisted",
      "type": "event"
    },
    {
      "constant": false,
      "inputs": [
        {
          "name": "_address",
          "type": "address"
        }
      ],
      "name": "addAdmin",
      "outputs": [],
      "payable": false,
      "stateMutability": "nonpayable",
      "type": "function"
    },
    {
      "constant": false,
      "inputs": [
        {
          "name": "_address",
          "type": "address"
        }
      ],
      "name": "addStoreowner",
      "outputs": [],
      "payable": false,
      "stateMutability": "nonpayable",
      "type": "function"
    },
    {
      "constant": false,
      "inputs": [],
      "name": "openStore",
      "outputs": [],
      "payable": false,
      "stateMutability": "nonpayable",
      "type": "function"
    },
    {
      "constant": false,
      "inputs": [
        {
          "name": "_storeId",
          "type": "uint256"
        },
        {
          "name": "_name",
          "type": "string"
        },
        {
          "name": "_price",
          "type": "uint256"
        }
      ],
      "name": "listItem",
      "outputs": [],
      "payable": false,
      "stateMutability": "nonpayable",
      "type": "function"
    },
    {
      "constant": false,
      "inputs": [
        {
          "name": "sku",
          "type": "uint256"
        }
      ],
      "name": "buyItem",
      "outputs": [],
      "payable": true,
      "stateMutability": "payable",
      "type": "function"
    },
    {
      "constant": true,
      "inputs": [
        {
          "name": "_sku",
          "type": "uint256"
        }
      ],
      "name": "fetchItem",
      "outputs": [
        {
          "name": "place",
          "type": "uint256"
        },
        {
          "name": "sku",
          "type": "uint256"
        },
        {
          "name": "name",
          "type": "string"
        },
        {
          "name": "price",
          "type": "uint256"
        },
        {
          "name": "state",
          "type": "uint256"
        },
        {
          "name": "seller",
          "type": "address"
        },
        {
          "name": "buyer",
          "type": "address"
        }
      ],
      "payable": false,
      "stateMutability": "view",
      "type": "function"
    },
    {
      "constant": true,
      "inputs": [
        {
          "name": "_address",
          "type": "address"
        }
      ],
      "name": "fetchStoresByAddress",
      "outputs": [
        {
          "name": "stores",
          "type": "uint256[]"
        }
      ],
      "payable": false,
      "stateMutability": "view",
      "type": "function"
    },
    {
      "constant": true,
      "inputs": [
        {
          "name": "_storeId",
          "type": "uint256"
        }
      ],
      "name": "fetchStoreowner",
      "outputs": [
        {
          "name": "_storeowner",
          "type": "address"
        }
      ],
      "payable": false,
      "stateMutability": "view",
      "type": "function"
    },
    {
      "constant": false,
      "inputs": [],
      "name": "kill",
      "outputs": [],
      "payable": false,
      "stateMutability": "nonpayable",
      "type": "function"
    },
    {
      "constant": false,
      "inputs": [],
      "name": "toggleContractActive",
      "outputs": [],
      "payable": false,
      "stateMutability": "nonpayable",
      "type": "function"
    }
  ],
  "bytecode": "0x608060405260008060146101000a81548160ff02191690831515021790555034801561002a57600080fd5b50336000806101000a81548173ffffffffffffffffffffffffffffffffffffffff021916908373ffffffffffffffffffffffffffffffffffffffff160217905550600060018190555060006002819055506001600360003373ffffffffffffffffffffffffffffffffffffffff1673ffffffffffffffffffffffffffffffffffffffff16815260200190815260200160002060006101000a81548160ff021916908360028111156100d757fe5b0217905550611b18806100eb6000396000f3006080604052600436106100fc576000357c0100000000000000000000000000000000000000000000000000000000900463ffffffff168063069a3d4c146101015780631385d24c1461017e578063200fffca14610195578063225d29a11461022d5780633d4d36001461029257806341c0e1b5146103c85780634e427852146103df5780636ce5c2061461040a578063704802751461044d57806375f12b21146104905780637e1dcaf7146104bf5780638da5cb5b146104d6578063ad4b9cfb1461052d578063b03b4bcf14610655578063ca6158cb146106c2578063d0f2e2b7146106ed578063d246992e1461075a578063e7fb74c7146107bb575b600080fd5b34801561010d57600080fd5b5061017c60048036038101908080359060200190929190803590602001908201803590602001908080601f0160208091040260200160405190810160405280939291908181526020018383808284378201915050505050509192919290803590602001909291905050506107db565b005b34801561018a57600080fd5b50610193610b14565b005b3480156101a157600080fd5b506101d6600480360381019080803573ffffffffffffffffffffffffffffffffffffffff169060200190929190505050610b9b565b6040518080602001828103825283818151815260200191508051906020019060200280838360005b838110156102195780820151818401526020810190506101fe565b505050509050019250505060405180910390f35b34801561023957600080fd5b5061026e600480360381019080803573ffffffffffffffffffffffffffffffffffffffff169060200190929190505050610c32565b6040518082600281111561027e57fe5b60ff16815260200191505060405180910390f35b34801561029e57600080fd5b506102bd60048036038101908080359060200190929190505050610c52565b60405180888152602001878152602001806020018681526020018560018111156102e357fe5b60ff1681526020018473ffffffffffffffffffffffffffffffffffffffff1673ffffffffffffffffffffffffffffffffffffffff1681526020018373ffffffffffffffffffffffffffffffffffffffff1673ffffffffffffffffffffffffffffffffffffffff168152602001828103825287818151815260200191508051906020019080838360005b8381101561038757808201518184015260208101905061036c565b50505050905090810190601f1680156103b45780820380516001836020036101000a031916815260200191505b509850505050505050505060405180910390f35b3480156103d457600080fd5b506103dd610d79565b005b3480156103eb57600080fd5b506103f4610e0e565b6040518082815260200191505060405180910390f35b34801561041657600080fd5b5061044b600480360381019080803573ffffffffffffffffffffffffffffffffffffffff169060200190929190505050610e14565b005b34801561045957600080fd5b5061048e600480360381019080803573ffffffffffffffffffffffffffffffffffffffff169060200190929190505050610fda565b005b34801561049c57600080fd5b506104a56110fc565b604051808215151515815260200191505060405180910390f35b3480156104cb57600080fd5b506104d461110f565b005b3480156104e257600080fd5b506104eb6113b0565b604051808273ffffffffffffffffffffffffffffffffffffffff1673ffffffffffffffffffffffffffffffffffffffff16815260200191505060405180910390f35b34801561053957600080fd5b50610558600480360381019080803590602001909291905050506113d5565b60405180888152602001878152602001806020018681526020018581526020018473ffffffffffffffffffffffffffffffffffffffff1673ffffffffffffffffffffffffffffffffffffffff1681526020018373ffffffffffffffffffffffffffffffffffffffff1673ffffffffffffffffffffffffffffffffffffffff168152602001828103825287818151815260200191508051906020019080838360005b838110156106145780820151818401526020810190506105f9565b50505050905090810190601f1680156106415780820380516001836020036101000a031916815260200191505b509850505050505050505060405180910390f35b34801561066157600080fd5b506106806004803603810190808035906020019092919050505061159f565b604051808273ffffffffffffffffffffffffffffffffffffffff1673ffffffffffffffffffffffffffffffffffffffff16815260200191505060405180910390f35b3480156106ce57600080fd5b506106d76115df565b6040518082815260200191505060405180910390f35b3480156106f957600080fd5b50610718600480360381019080803590602001909291905050506115e5565b604051808273ffffffffffffffffffffffffffffffffffffffff1673ffffffffffffffffffffffffffffffffffffffff16815260200191505060405180910390f35b34801561076657600080fd5b506107a5600480360381019080803573ffffffffffffffffffffffffffffffffffffffff16906020019092919080359060200190929190505050611623565b6040518082815260200191505060405180910390f35b6107d960048036038101908080359060200190929190505050611653565b005b600060149054906101000a900460ff161515156107f757600080fd5b6001600281111561080457fe5b600360003373ffffffffffffffffffffffffffffffffffffffff1673ffffffffffffffffffffffffffffffffffffffff16815260200190815260200160002060009054906101000a900460ff16600281111561085c57fe5b14806108c9575060028081111561086f57fe5b600360003373ffffffffffffffffffffffffffffffffffffffff1673ffffffffffffffffffffffffffffffffffffffff16815260200190815260200160002060009054906101000a900460ff1660028111156108c757fe5b145b15156108d457600080fd5b3373ffffffffffffffffffffffffffffffffffffffff166005600085815260200190815260200160002060000160009054906101000a900473ffffffffffffffffffffffffffffffffffffffff1673ffffffffffffffffffffffffffffffffffffffff1614151561094457600080fd5b7f5cedb4b4e9d21f2b6ae92d858fd47c1f6ef4af540c48aea4cccc861bdfbffb6983600254604051808381526020018281526020019250505060405180910390a160e0604051908101604052808481526020016002548152602001838152602001828152602001600060018111156109b857fe5b81526020013373ffffffffffffffffffffffffffffffffffffffff168152602001600073ffffffffffffffffffffffffffffffffffffffff1681525060066000600254815260200190815260200160002060008201518160000155602082015181600101556040820151816002019080519060200190610a399291906119ca565b506060820151816003015560808201518160040160006101000a81548160ff02191690836001811115610a6857fe5b021790555060a08201518160040160016101000a81548173ffffffffffffffffffffffffffffffffffffffff021916908373ffffffffffffffffffffffffffffffffffffffff16021790555060c08201518160050160006101000a81548173ffffffffffffffffffffffffffffffffffffffff021916908373ffffffffffffffffffffffffffffffffffffffff1602179055509050506001600260008282540192505081905550505050565b6000809054906101000a900473ffffffffffffffffffffffffffffffffffffffff1673ffffffffffffffffffffffffffffffffffffffff163373ffffffffffffffffffffffffffffffffffffffff16141515610b6f57600080fd5b600060149054906101000a900460ff1615600060146101000a81548160ff021916908315150217905550565b6060600460008373ffffffffffffffffffffffffffffffffffffffff1673ffffffffffffffffffffffffffffffffffffffff168152602001908152602001600020805480602002602001604051908101604052809291908181526020018280548015610c2657602002820191906000526020600020905b815481526020019060010190808311610c12575b50505050509050919050565b60036020528060005260406000206000915054906101000a900460ff1681565b6006602052806000526040600020600091509050806000015490806001015490806002018054600181600116156101000203166002900480601f016020809104026020016040519081016040528092919081815260200182805460018160011615610100020316600290048015610d0a5780601f10610cdf57610100808354040283529160200191610d0a565b820191906000526020600020905b815481529060010190602001808311610ced57829003601f168201915b5050505050908060030154908060040160009054906101000a900460ff16908060040160019054906101000a900473ffffffffffffffffffffffffffffffffffffffff16908060050160009054906101000a900473ffffffffffffffffffffffffffffffffffffffff16905087565b6000809054906101000a900473ffffffffffffffffffffffffffffffffffffffff1673ffffffffffffffffffffffffffffffffffffffff163373ffffffffffffffffffffffffffffffffffffffff16141515610dd457600080fd5b6000809054906101000a900473ffffffffffffffffffffffffffffffffffffffff1673ffffffffffffffffffffffffffffffffffffffff16ff5b60015481565b600060149054906101000a900460ff16151515610e3057600080fd5b60016002811115610e3d57fe5b600360003373ffffffffffffffffffffffffffffffffffffffff1673ffffffffffffffffffffffffffffffffffffffff16815260200190815260200160002060009054906101000a900460ff166002811115610e9557fe5b141515610ea157600080fd5b60016002811115610eae57fe5b600360008373ffffffffffffffffffffffffffffffffffffffff1673ffffffffffffffffffffffffffffffffffffffff16815260200190815260200160002060009054906101000a900460ff166002811115610f0657fe5b14151515610f1357600080fd5b6002600360008373ffffffffffffffffffffffffffffffffffffffff1673ffffffffffffffffffffffffffffffffffffffff16815260200190815260200160002060006101000a81548160ff02191690836002811115610f6f57fe5b02179055507f252b63b0cbcbe73545bdba2cb1d1fa100be757de4426c7e51638de9980bc5bb081604051808273ffffffffffffffffffffffffffffffffffffffff1673ffffffffffffffffffffffffffffffffffffffff16815260200191505060405180910390a150565b6000809054906101000a900473ffffffffffffffffffffffffffffffffffffffff1673ffffffffffffffffffffffffffffffffffffffff163373ffffffffffffffffffffffffffffffffffffffff1614151561103557600080fd5b6001600360008373ffffffffffffffffffffffffffffffffffffffff1673ffffffffffffffffffffffffffffffffffffffff16815260200190815260200160002060006101000a81548160ff0219169083600281111561109157fe5b02179055507f44d6d25963f097ad14f29f06854a01f575648a1ef82f30e562ccd3889717e33981604051808273ffffffffffffffffffffffffffffffffffffffff1673ffffffffffffffffffffffffffffffffffffffff16815260200191505060405180910390a150565b600060149054906101000a900460ff1681565b611117611a4a565b600060149054906101000a900460ff1615151561113357600080fd5b6001600281111561114057fe5b600360003373ffffffffffffffffffffffffffffffffffffffff1673ffffffffffffffffffffffffffffffffffffffff16815260200190815260200160002060009054906101000a900460ff16600281111561119857fe5b148061120557506002808111156111ab57fe5b600360003373ffffffffffffffffffffffffffffffffffffffff1673ffffffffffffffffffffffffffffffffffffffff16815260200190815260200160002060009054906101000a900460ff16600281111561120357fe5b145b151561121057600080fd5b33816000019073ffffffffffffffffffffffffffffffffffffffff16908173ffffffffffffffffffffffffffffffffffffffff16815250508060056000600154815260200190815260200160002060008201518160000160006101000a81548173ffffffffffffffffffffffffffffffffffffffff021916908373ffffffffffffffffffffffffffffffffffffffff16021790555060208201518160010190805190602001906112c1929190611a7a565b50905050600460003373ffffffffffffffffffffffffffffffffffffffff1673ffffffffffffffffffffffffffffffffffffffff16815260200190815260200160002060015490806001815401808255809150509060018203906000526020600020016000909192909190915055507f73ae25dae4902cdc33c050e005f61cfb23cbcf4abe974e1f59614385d04deae333600154604051808373ffffffffffffffffffffffffffffffffffffffff1673ffffffffffffffffffffffffffffffffffffffff1681526020018281526020019250505060405180910390a16001806000828254019250508190555050565b6000809054906101000a900473ffffffffffffffffffffffffffffffffffffffff1681565b60008060606000806000806006600089815260200190815260200160002060000154965060066000898152602001908152602001600020600101549550600660008981526020019081526020016000206002018054600181600116156101000203166002900480601f0160208091040260200160405190810160405280929190818152602001828054600181600116156101000203166002900480156114bc5780601f10611491576101008083540402835291602001916114bc565b820191906000526020600020905b81548152906001019060200180831161149f57829003601f168201915b50505050509450600660008981526020019081526020016000206003015493506006600089815260200190815260200160002060040160009054906101000a900460ff16600181111561150b57fe5b92506006600089815260200190815260200160002060040160019054906101000a900473ffffffffffffffffffffffffffffffffffffffff1691506006600089815260200190815260200160002060050160009054906101000a900473ffffffffffffffffffffffffffffffffffffffff169050868686868686869650965096509650965096509650919395979092949650565b60006005600083815260200190815260200160002060000160009054906101000a900473ffffffffffffffffffffffffffffffffffffffff169050919050565b60025481565b60056020528060005260406000206000915090508060000160009054906101000a900473ffffffffffffffffffffffffffffffffffffffff16905081565b60046020528160005260406000208181548110151561163e57fe5b90600052602060002001600091509150505481565b600060149054906101000a900460ff1615151561166f57600080fd5b806000600181111561167d57fe5b6006600083815260200190815260200160002060040160009054906101000a900460ff1660018111156116ac57fe5b1415156116b857600080fd5b813373ffffffffffffffffffffffffffffffffffffffff166006600083815260200190815260200160002060040160019054906101000a900473ffffffffffffffffffffffffffffffffffffffff1673ffffffffffffffffffffffffffffffffffffffff161415151561172a57600080fd5b600660008481526020019081526020016000206003015480341015151561175057600080fd5b83600080336006600089815260200190815260200160002060050160006101000a81548173ffffffffffffffffffffffffffffffffffffffff021916908373ffffffffffffffffffffffffffffffffffffffff1602179055506006600088815260200190815260200160002060040160019054906101000a900473ffffffffffffffffffffffffffffffffffffffff1673ffffffffffffffffffffffffffffffffffffffff166108fc600660008a8152602001908152602001600020600301549081150290604051600060405180830381858888f1935050505015801561183b573d6000803e3d6000fd5b5073__Warehouse_____________________________6350785835600660008a81526020019081526020016000206040518263ffffffff167c01000000000000000000000000000000000000000000000000000000000281526004018082815260200191505060006040518083038186803b1580156118b957600080fd5b505af41580156118cd573d6000803e3d6000fd5b505050507f49934bdc44c552b328ef963b26b06602ad0b22bb4d8d1a9f19cdde4e3a2539f6600660008981526020019081526020016000206000015488604051808381526020018281526020019250505060405180910390a16006600084815260200190815260200160002060030154915081340390506006600084815260200190815260200160002060050160009054906101000a900473ffffffffffffffffffffffffffffffffffffffff1673ffffffffffffffffffffffffffffffffffffffff166108fc829081150290604051600060405180830381858888f193505050501580156119c0573d6000803e3d6000fd5b5050505050505050565b828054600181600116156101000203166002900490600052602060002090601f016020900481019282601f10611a0b57805160ff1916838001178555611a39565b82800160010185558215611a39579182015b82811115611a38578251825591602001919060010190611a1d565b5b509050611a469190611ac7565b5090565b6040805190810160405280600073ffffffffffffffffffffffffffffffffffffffff168152602001606081525090565b828054828255906000526020600020908101928215611ab6579160200282015b82811115611ab5578251825591602001919060010190611a9a565b5b509050611ac39190611ac7565b5090565b611ae991905b80821115611ae5576000816000905550600101611acd565b5090565b905600a165627a7a723058206d52c6b509c9e636b66b814b7511d21f54d95885b7a45fb99810a3029c9f600b0029",
  "source": "pragma solidity ^0.4.23;\n\nimport \"./Warehouse.sol\";\n\ncontract Marketplace {\n\n  // set owner\n  address public owner;\n\n  // circuit breaker\n\n  bool public stopped = false;\n\n  /*\n    storeId: total number of stores opened\n    itemId: total number of items listed\n  */\n  uint public storeId;\n  uint public itemId;\n\n  /*\n    userStatus: privileges granted to addresses\n    storeOwnerList: stores owned by each address\n    storeList: storeId mapped to Store\n    itemList: itemId mapped to Item\n\n  */\n  mapping (address => Warehouse.Status) public userStatus;\n  mapping (address => uint[]) public storeownerList;\n  mapping (uint => Warehouse.Store) public storeList;\n  mapping (uint => Warehouse.Item) public itemList;\n\n  event AdminAdded(address newAdmin);\n  event StoreownerAdded(address storeOwner);\n\n  event StoreOpened(address storeowner, uint storeId);\n  event StoreClosed(address storeowner, uint storeId);\n\n  event ItemListed(uint storeId, uint itemId);\n  event ItemSold(uint storeId, uint itemId);\n  event ItemUnlisted(uint storeId, uint itemId);\n\n  modifier verifyOwner { require(msg.sender == owner); _;}\n  modifier verifyAdmin { require(userStatus[msg.sender] == Warehouse.Status.Admin); _;}\n  modifier verifyAdminOrStoreowner { require(userStatus[msg.sender] == Warehouse.Status.Admin || userStatus[msg.sender] == Warehouse.Status.Storeowner); _;}\n  modifier verifyBuyerIsNotSeller (uint _sku) { require(itemList[_sku].seller != msg.sender); _;}\n\n  modifier forSale (uint _sku) {require(itemList[_sku].state == Warehouse.State.ForSale); _;}\n\n  modifier paidEnough(uint _price) {require(msg.value >= _price); _;}\n  modifier checkValue(uint _sku) {\n    _;\n    uint _price = itemList[_sku].price;\n    uint amountToRefund = msg.value - _price;\n    itemList[_sku].buyer.transfer(amountToRefund);\n  }\n\n  modifier stopInEmergency { require(!stopped); _;}\n\n  constructor() public {\n    owner = msg.sender;\n    storeId = 0;\n    itemId = 0;\n\n    // initialise contract creator as admin\n    userStatus[msg.sender] = Warehouse.Status.Admin;\n  }\n\n  /*\n    @dev Sets an address as Admin\n    @param addr Address to be set as Admin\n  */\n  function addAdmin(address _address) public verifyOwner {\n    userStatus[_address] = Warehouse.Status.Admin;\n    emit AdminAdded(_address);\n  }\n\n  /*\n    @dev Sets an address as storeOwner\n    @param addr Address to be set as Storeowner\n  */\n  function addStoreowner(address _address)\n    public\n    stopInEmergency\n    verifyAdmin\n  {\n    // ensure user is not already an AdminAdded\n    require(userStatus[_address] != Warehouse.Status.Admin);\n\n    userStatus[_address] = Warehouse.Status.Storeowner;\n    emit StoreownerAdded(_address);\n  }\n\n  /*\n    @dev Ppens a store for the current address\n  */\n\n  function openStore()\n    public\n    stopInEmergency\n    verifyAdminOrStoreowner\n  {\n\n    Warehouse.Store memory newStore;\n    newStore.storeowner = msg.sender;\n    storeList[storeId] = newStore;\n    storeownerList[msg.sender].push(storeId);\n\n    emit StoreOpened(msg.sender, storeId);\n\n    storeId += 1;\n\n  }\n\n  /*\n    @dev Lists an item for sale\n    @param _storeId The store to list the item\n    @param _name The name of the item\n    @param _price The price of the item\n  */\n\n  function listItem(uint _storeId, string _name, uint _price)\n    public\n    stopInEmergency\n    verifyAdminOrStoreowner\n  {\n    require(storeList[_storeId].storeowner == msg.sender);\n    emit ItemListed(_storeId, itemId);\n    itemList[itemId] = Warehouse.Item({place: _storeId, sku: itemId, name: _name,  price: _price, state: Warehouse.State.ForSale,\n      seller: msg.sender, buyer: 0});\n    itemId += 1;\n  }\n\n  /*\n    @dev Buys an item listed for sale\n    @param sku The id of the item to be bought\n  */\n\n  function buyItem(uint sku)\n    public\n    payable\n    stopInEmergency\n    forSale(sku)\n    verifyBuyerIsNotSeller(sku)\n    paidEnough(itemList[sku].price)\n    checkValue(sku)\n  {\n    itemList[sku].buyer = msg.sender;\n    itemList[sku].seller.transfer(itemList[sku].price);\n    Warehouse.updateItemSold(itemList[sku]);\n    emit ItemSold(itemList[sku].place, sku);\n  }\n\n  /*\n    @dev Sets an address as storeOwner\n    @param sku The id of the item which details are sought\n    @return place The store where the item is Listed\n    @return sku The item ID\n    @return name The name of the item\n    @return state Whether the item has been sold\n    @return seller The address of the Seller\n    @return buyer The address of the Buyer (if any)\n  */\n\n  function fetchItem(uint _sku)\n    public\n    view\n    returns (uint place, uint sku, string name, uint price, uint state, address seller, address buyer)\n  {\n    place = itemList[_sku].place;\n    sku = itemList[_sku].sku;\n    name = itemList[_sku].name;\n    price = itemList[_sku].price;\n    state = uint(itemList[_sku].state);\n    seller = itemList[_sku].seller;\n    buyer = itemList[_sku].buyer;\n    return (place, sku, name, price, state, seller, buyer);\n  }\n\n  /*\n    @dev Return the stores opened by an address\n    @param _address Storeowner address to look up\n    @return stores A list of stores opened by the address given\n  */\n\n  function fetchStoresByAddress(address _address)\n    public\n    view\n    returns (uint[] stores)\n  {\n    stores = storeownerList[_address];\n  }\n\n  /*\n    @dev Return the storeowner of a stored\n    @param _storeId The Store to look up\n    @return _storeowner The address of the storeowner\n  */\n\n  function fetchStoreowner(uint _storeId)\n    public\n    view\n    returns (address _storeowner)\n  {\n    _storeowner = storeList[_storeId].storeowner;\n  }\n\n  /*\n    @dev Destroy the contract\n  */\n\n  function kill()\n    public\n    verifyOwner\n  {\n    selfdestruct(owner);\n  }\n\n  /*\n    @dev Stop the contract\n  */\n\n  function toggleContractActive()\n    public\n    verifyOwner\n  {\n    stopped = !stopped;\n  }\n\n\n}\n",
  "sourcePath": "/home/tserg/marketplace/contracts/Marketplace.sol",
  "compiler": {
    "name": "solc",
    "version": "0.4.24+commit.e67f0147.Emscripten.clang"
  },
  "schemaVersion": "2.0.1",
  "updatedAt": "2018-07-22T09:53:16.152Z"
}