{
  "contractName": "Warehouse",
  "abi": [
    {
      "constant": false,
      "inputs": [
        {
          "name": "self",
          "type": "Warehouse.Item storage"
        }
      ],
      "name": "updateItemSold",
      "outputs": [],
      "payable": false,
      "stateMutability": "nonpayable",
      "type": "function"
    }
  ],
  "bytecode": "0x60d961002f600b82828239805160001a6073146000811461001f57610021565bfe5b5030600052607381538281f30073000000000000000000000000000000000000000030146080604052600436106056576000357c0100000000000000000000000000000000000000000000000000000000900463ffffffff1680635078583514605b575b600080fd5b818015606657600080fd5b506083600480360381019080803590602001909291905050506085565b005b60018160040160006101000a81548160ff0219169083600181111560a557fe5b0217905550505600a165627a7a72305820db19ae06ced8ba81ccfaf239de2db671434cff30108c5bf6cf78ed52999e6cf10029",
  "source": "pragma solidity ^0.4.23;\n\nlibrary Warehouse {\n\n  /*\n    State: status of item listed for ForSale\n    Status: privileges granted to a user\n  */\n\n  enum State {ForSale, Sold}\n  enum Status {Shopper, Admin, Storeowner}\n\n  struct Store {\n    address storeowner;\n    uint[] items;\n  }\n\n  struct Item {\n    uint place;\n    uint sku;\n    string name;\n    uint price;\n    State state;\n    address seller;\n    address buyer;\n  }\n\n  /*\n    @dev Update item status to Sold\n    @param self The item that was sold\n  */\n\n  function updateItemSold(Item storage self)\n    public\n  {\n    self.state = State.Sold;\n  }\n\n}\n",
  "sourcePath": "/home/tserg/marketplace/contracts/Warehouse.sol",
  "compiler": {
    "name": "solc",
    "version": "0.4.24+commit.e67f0147.Emscripten.clang"
  },
  "schemaVersion": "2.0.1",
  "updatedAt": "2018-07-22T10:47:50.893Z"
}